{
  "contractName": "Asset",
  "abi": [
    {
      "inputs": [],
      "stateMutability": "nonpayable",
      "type": "constructor"
    },
    {
      "anonymous": false,
      "inputs": [
        {
          "indexed": true,
          "internalType": "address",
          "name": "owner",
          "type": "address"
        },
        {
          "indexed": true,
          "internalType": "address",
          "name": "approved",
          "type": "address"
        },
        {
          "indexed": true,
          "internalType": "uint256",
          "name": "tokenId",
          "type": "uint256"
        }
      ],
      "name": "Approval",
      "type": "event"
    },
    {
      "anonymous": false,
      "inputs": [
        {
          "indexed": true,
          "internalType": "address",
          "name": "owner",
          "type": "address"
        },
        {
          "indexed": true,
          "internalType": "address",
          "name": "operator",
          "type": "address"
        },
        {
          "indexed": false,
          "internalType": "bool",
          "name": "approved",
          "type": "bool"
        }
      ],
      "name": "ApprovalForAll",
      "type": "event"
    },
    {
      "anonymous": false,
      "inputs": [
        {
          "indexed": true,
          "internalType": "string",
          "name": "symbol",
          "type": "string"
        },
        {
          "indexed": false,
          "internalType": "address",
          "name": "_sender",
          "type": "address"
        },
        {
          "indexed": false,
          "internalType": "uint256",
          "name": "_id",
          "type": "uint256"
        }
      ],
      "name": "TokenEmitted",
      "type": "event"
    },
    {
      "anonymous": false,
      "inputs": [
        {
          "indexed": true,
          "internalType": "address",
          "name": "from",
          "type": "address"
        },
        {
          "indexed": true,
          "internalType": "address",
          "name": "to",
          "type": "address"
        },
        {
          "indexed": true,
          "internalType": "uint256",
          "name": "tokenId",
          "type": "uint256"
        }
      ],
      "name": "Transfer",
      "type": "event"
    },
    {
      "inputs": [
        {
          "internalType": "address",
          "name": "to",
          "type": "address"
        },
        {
          "internalType": "uint256",
          "name": "tokenId",
          "type": "uint256"
        }
      ],
      "name": "approve",
      "outputs": [],
      "stateMutability": "nonpayable",
      "type": "function"
    },
    {
      "inputs": [
        {
          "internalType": "address",
          "name": "owner",
          "type": "address"
        }
      ],
      "name": "balanceOf",
      "outputs": [
        {
          "internalType": "uint256",
          "name": "",
          "type": "uint256"
        }
      ],
      "stateMutability": "view",
      "type": "function"
    },
    {
      "inputs": [
        {
          "internalType": "uint256",
          "name": "tokenId",
          "type": "uint256"
        }
      ],
      "name": "getApproved",
      "outputs": [
        {
          "internalType": "address",
          "name": "",
          "type": "address"
        }
      ],
      "stateMutability": "view",
      "type": "function"
    },
    {
      "inputs": [
        {
          "internalType": "address",
          "name": "owner",
          "type": "address"
        },
        {
          "internalType": "address",
          "name": "operator",
          "type": "address"
        }
      ],
      "name": "isApprovedForAll",
      "outputs": [
        {
          "internalType": "bool",
          "name": "",
          "type": "bool"
        }
      ],
      "stateMutability": "view",
      "type": "function"
    },
    {
      "inputs": [],
      "name": "name",
      "outputs": [
        {
          "internalType": "string",
          "name": "",
          "type": "string"
        }
      ],
      "stateMutability": "view",
      "type": "function"
    },
    {
      "inputs": [
        {
          "internalType": "uint256",
          "name": "tokenId",
          "type": "uint256"
        }
      ],
      "name": "ownerOf",
      "outputs": [
        {
          "internalType": "address",
          "name": "",
          "type": "address"
        }
      ],
      "stateMutability": "view",
      "type": "function"
    },
    {
      "inputs": [
        {
          "internalType": "address",
          "name": "",
          "type": "address"
        },
        {
          "internalType": "uint256",
          "name": "",
          "type": "uint256"
        }
      ],
      "name": "ownerTokens",
      "outputs": [
        {
          "internalType": "uint256",
          "name": "",
          "type": "uint256"
        }
      ],
      "stateMutability": "view",
      "type": "function"
    },
    {
      "inputs": [
        {
          "internalType": "address",
          "name": "from",
          "type": "address"
        },
        {
          "internalType": "address",
          "name": "to",
          "type": "address"
        },
        {
          "internalType": "uint256",
          "name": "tokenId",
          "type": "uint256"
        }
      ],
      "name": "safeTransferFrom",
      "outputs": [],
      "stateMutability": "nonpayable",
      "type": "function"
    },
    {
      "inputs": [
        {
          "internalType": "address",
          "name": "from",
          "type": "address"
        },
        {
          "internalType": "address",
          "name": "to",
          "type": "address"
        },
        {
          "internalType": "uint256",
          "name": "tokenId",
          "type": "uint256"
        },
        {
          "internalType": "bytes",
          "name": "_data",
          "type": "bytes"
        }
      ],
      "name": "safeTransferFrom",
      "outputs": [],
      "stateMutability": "nonpayable",
      "type": "function"
    },
    {
      "inputs": [
        {
          "internalType": "address",
          "name": "operator",
          "type": "address"
        },
        {
          "internalType": "bool",
          "name": "approved",
          "type": "bool"
        }
      ],
      "name": "setApprovalForAll",
      "outputs": [],
      "stateMutability": "nonpayable",
      "type": "function"
    },
    {
      "inputs": [
        {
          "internalType": "bytes4",
          "name": "interfaceId",
          "type": "bytes4"
        }
      ],
      "name": "supportsInterface",
      "outputs": [
        {
          "internalType": "bool",
          "name": "",
          "type": "bool"
        }
      ],
      "stateMutability": "view",
      "type": "function"
    },
    {
      "inputs": [],
      "name": "symbol",
      "outputs": [
        {
          "internalType": "string",
          "name": "",
          "type": "string"
        }
      ],
      "stateMutability": "view",
      "type": "function"
    },
    {
      "inputs": [
        {
          "internalType": "uint256",
          "name": "tokenId",
          "type": "uint256"
        }
      ],
      "name": "tokenURI",
      "outputs": [
        {
          "internalType": "string",
          "name": "",
          "type": "string"
        }
      ],
      "stateMutability": "view",
      "type": "function"
    },
    {
      "inputs": [
        {
          "internalType": "address",
          "name": "from",
          "type": "address"
        },
        {
          "internalType": "address",
          "name": "to",
          "type": "address"
        },
        {
          "internalType": "uint256",
          "name": "tokenId",
          "type": "uint256"
        }
      ],
      "name": "transferFrom",
      "outputs": [],
      "stateMutability": "nonpayable",
      "type": "function"
    },
    {
      "inputs": [],
      "name": "value",
      "outputs": [
        {
          "internalType": "uint256",
          "name": "",
          "type": "uint256"
        }
      ],
      "stateMutability": "view",
      "type": "function"
    },
    {
      "inputs": [
        {
          "internalType": "string",
          "name": "_tokenURI",
          "type": "string"
        }
      ],
      "name": "mintAsset",
      "outputs": [
        {
          "internalType": "uint256",
          "name": "",
          "type": "uint256"
        }
      ],
      "stateMutability": "nonpayable",
      "type": "function"
    },
    {
      "inputs": [],
      "name": "getTotalAssets",
      "outputs": [
        {
          "internalType": "uint256",
          "name": "",
          "type": "uint256"
        }
      ],
      "stateMutability": "view",
      "type": "function"
    },
    {
      "inputs": [],
      "name": "getAllTokenURIs",
      "outputs": [
        {
          "internalType": "string[]",
          "name": "",
          "type": "string[]"
        }
      ],
      "stateMutability": "view",
      "type": "function"
    },
    {
      "inputs": [],
      "name": "getOwnedTokens",
      "outputs": [
        {
          "internalType": "uint256[]",
          "name": "",
          "type": "uint256[]"
        }
      ],
      "stateMutability": "view",
      "type": "function"
    },
    {
      "inputs": [],
      "name": "getOwnedTokensURIs",
      "outputs": [
        {
          "internalType": "string[]",
          "name": "",
          "type": "string[]"
        }
      ],
      "stateMutability": "view",
      "type": "function"
    }
  ],
  "bytecode": "0x60806040523480156200001157600080fd5b506040518060400160405280600981526020017f4e6578744672616d6500000000000000000000000000000000000000000000008152506040518060400160405280600381526020017f4e58460000000000000000000000000000000000000000000000000000000000815250816000908051906020019062000096929190620000c0565b508060019080519060200190620000af929190620000c0565b5050506000600881905550620001d5565b828054620000ce9062000170565b90600052602060002090601f016020900481019282620000f257600085556200013e565b82601f106200010d57805160ff19168380011785556200013e565b828001600101855582156200013e579182015b828111156200013d57825182559160200191906001019062000120565b5b5090506200014d919062000151565b5090565b5b808211156200016c57600081600090555060010162000152565b5090565b600060028204905060018216806200018957607f821691505b60208210811415620001a0576200019f620001a6565b5b50919050565b7f4e487b7100000000000000000000000000000000000000000000000000000000600052602260045260246000fd5b61331880620001e56000396000f3fe608060405234801561001057600080fd5b506004361061012c5760003560e01c806360820d80116100ad57806395d89b411161007157806395d89b4114610359578063a22cb46514610377578063b88d4fde14610393578063c87b56dd146103af578063e985e9c5146103df5761012c565b806360820d801461029f5780636352211e146102bd5780636e07302b146102ed57806370a082311461030b57806389fde7af1461033b5761012c565b806328b60031116100f457806328b60031146101e75780633fa4f2451461021757806342842e0e1461023557806343b78e19146102515780634523d7e0146102815761012c565b806301ffc9a71461013157806306fdde0314610161578063081812fc1461017f578063095ea7b3146101af57806323b872dd146101cb575b600080fd5b61014b60048036038101906101469190612136565b61040f565b6040516101589190612748565b60405180910390f35b6101696104f1565b6040516101769190612763565b60405180910390f35b610199600480360381019061019491906121c9565b610583565b6040516101a69190612674565b60405180910390f35b6101c960048036038101906101c491906120fa565b610608565b005b6101e560048036038101906101e09190611ff4565b610720565b005b61020160048036038101906101fc91906120fa565b610780565b60405161020e9190612985565b60405180910390f35b61021f6107b1565b60405161022c9190612985565b60405180910390f35b61024f600480360381019061024a9190611ff4565b6107b7565b005b61026b60048036038101906102669190612188565b6107d7565b6040516102789190612985565b60405180910390f35b6102896108ca565b6040516102969190612704565b60405180910390f35b6102a7610a8c565b6040516102b49190612726565b60405180910390f35b6102d760048036038101906102d291906121c9565b610b27565b6040516102e49190612674565b60405180910390f35b6102f5610bd9565b6040516103029190612985565b60405180910390f35b61032560048036038101906103209190611f8f565b610bea565b6040516103329190612985565b60405180910390f35b610343610ca2565b6040516103509190612704565b60405180910390f35b610361610da9565b60405161036e9190612763565b60405180910390f35b610391600480360381019061038c91906120be565b610e3b565b005b6103ad60048036038101906103a89190612043565b610e51565b005b6103c960048036038101906103c491906121c9565b610eb3565b6040516103d69190612763565b60405180910390f35b6103f960048036038101906103f49190611fb8565b611005565b6040516104069190612748565b60405180910390f35b60007f80ac58cd000000000000000000000000000000000000000000000000000000007bffffffffffffffffffffffffffffffffffffffffffffffffffffffff1916827bffffffffffffffffffffffffffffffffffffffffffffffffffffffff191614806104da57507f5b5e139f000000000000000000000000000000000000000000000000000000007bffffffffffffffffffffffffffffffffffffffffffffffffffffffff1916827bffffffffffffffffffffffffffffffffffffffffffffffffffffffff1916145b806104ea57506104e982611099565b5b9050919050565b60606000805461050090612c5e565b80601f016020809104026020016040519081016040528092919081815260200182805461052c90612c5e565b80156105795780601f1061054e57610100808354040283529160200191610579565b820191906000526020600020905b81548152906001019060200180831161055c57829003601f168201915b5050505050905090565b600061058e82611103565b6105cd576040517f08c379a00000000000000000000000000000000000000000000000000000000081526004016105c4906128e5565b60405180910390fd5b6004600083815260200190815260200160002060009054906101000a900473ffffffffffffffffffffffffffffffffffffffff169050919050565b600061061382610b27565b90508073ffffffffffffffffffffffffffffffffffffffff168373ffffffffffffffffffffffffffffffffffffffff161415610684576040517f08c379a000000000000000000000000000000000000000000000000000000000815260040161067b90612945565b60405180910390fd5b8073ffffffffffffffffffffffffffffffffffffffff166106a361116f565b73ffffffffffffffffffffffffffffffffffffffff1614806106d257506106d1816106cc61116f565b611005565b5b610711576040517f08c379a000000000000000000000000000000000000000000000000000000000815260040161070890612825565b60405180910390fd5b61071b8383611177565b505050565b61073161072b61116f565b82611230565b610770576040517f08c379a000000000000000000000000000000000000000000000000000000000815260040161076790612965565b60405180910390fd5b61077b83838361130e565b505050565b6009602052816000526040600020818154811061079c57600080fd5b90600052602060002001600091509150505481565b60085481565b6107d283838360405180602001604052806000815250610e51565b505050565b60006107e3600761156a565b60006107ef6007611580565b90506107fb338261158e565b610805818461175c565b600960003373ffffffffffffffffffffffffffffffffffffffff1673ffffffffffffffffffffffffffffffffffffffff168152602001908152602001600020819080600181540180825580915050600190039060005260206000200160009091909190915055610873610da9565b6040516108809190612639565b60405180910390207ff0a178341e398e16706cb3f661f1e0f760799367f4b4d00792509d23b243786933836040516108b99291906126db565b60405180910390a280915050919050565b60606000600960003373ffffffffffffffffffffffffffffffffffffffff1673ffffffffffffffffffffffffffffffffffffffff16815260200190815260200160002080548060200260200160405190810160405280929190818152602001828054801561095757602002820191906000526020600020905b815481526020019060010190808311610943575b505050505090506000815167ffffffffffffffff8111156109a1577f4e487b7100000000000000000000000000000000000000000000000000000000600052604160045260246000fd5b6040519080825280602002602001820160405280156109d457816020015b60608152602001906001900390816109bf5790505b50905060005b8251811015610a8357610a2c838281518110610a1f577f4e487b7100000000000000000000000000000000000000000000000000000000600052603260045260246000fd5b6020026020010151610eb3565b828281518110610a65577f4e487b7100000000000000000000000000000000000000000000000000000000600052603260045260246000fd5b60200260200101819052508080610a7b90612cc1565b9150506109da565b50809250505090565b60606000600960003373ffffffffffffffffffffffffffffffffffffffff1673ffffffffffffffffffffffffffffffffffffffff168152602001908152602001600020805480602002602001604051908101604052809291908181526020018280548015610b1957602002820191906000526020600020905b815481526020019060010190808311610b05575b505050505090508091505090565b6000806002600084815260200190815260200160002060009054906101000a900473ffffffffffffffffffffffffffffffffffffffff169050600073ffffffffffffffffffffffffffffffffffffffff168173ffffffffffffffffffffffffffffffffffffffff161415610bd0576040517f08c379a0000000000000000000000000000000000000000000000000000000008152600401610bc790612865565b60405180910390fd5b80915050919050565b6000610be56007611580565b905090565b60008073ffffffffffffffffffffffffffffffffffffffff168273ffffffffffffffffffffffffffffffffffffffff161415610c5b576040517f08c379a0000000000000000000000000000000000000000000000000000000008152600401610c5290612845565b60405180910390fd5b600360008373ffffffffffffffffffffffffffffffffffffffff1673ffffffffffffffffffffffffffffffffffffffff168152602001908152602001600020549050919050565b60606000610cae610bd9565b67ffffffffffffffff811115610ced577f4e487b7100000000000000000000000000000000000000000000000000000000600052604160045260246000fd5b604051908082528060200260200182016040528015610d2057816020015b6060815260200190600190039081610d0b5790505b50905060005b610d2e610bd9565b811015610da157610d4a600182610d459190612aed565b610eb3565b828281518110610d83577f4e487b7100000000000000000000000000000000000000000000000000000000600052603260045260246000fd5b60200260200101819052508080610d9990612cc1565b915050610d26565b508091505090565b606060018054610db890612c5e565b80601f0160208091040260200160405190810160405280929190818152602001828054610de490612c5e565b8015610e315780601f10610e0657610100808354040283529160200191610e31565b820191906000526020600020905b815481529060010190602001808311610e1457829003601f168201915b5050505050905090565b610e4d610e4661116f565b83836117d0565b5050565b610e62610e5c61116f565b83611230565b610ea1576040517f08c379a0000000000000000000000000000000000000000000000000000000008152600401610e9890612965565b60405180910390fd5b610ead8484848461193d565b50505050565b6060610ebe82611103565b610efd576040517f08c379a0000000000000000000000000000000000000000000000000000000008152600401610ef4906128c5565b60405180910390fd5b6000600660008481526020019081526020016000208054610f1d90612c5e565b80601f0160208091040260200160405190810160405280929190818152602001828054610f4990612c5e565b8015610f965780601f10610f6b57610100808354040283529160200191610f96565b820191906000526020600020905b815481529060010190602001808311610f7957829003601f168201915b505050505090506000610fa7611999565b9050600081511415610fbd578192505050611000565b600082511115610ff2578082604051602001610fda929190612650565b60405160208183030381529060405292505050611000565b610ffb846119b0565b925050505b919050565b6000600560008473ffffffffffffffffffffffffffffffffffffffff1673ffffffffffffffffffffffffffffffffffffffff16815260200190815260200160002060008373ffffffffffffffffffffffffffffffffffffffff1673ffffffffffffffffffffffffffffffffffffffff16815260200190815260200160002060009054906101000a900460ff16905092915050565b60007f01ffc9a7000000000000000000000000000000000000000000000000000000007bffffffffffffffffffffffffffffffffffffffffffffffffffffffff1916827bffffffffffffffffffffffffffffffffffffffffffffffffffffffff1916149050919050565b60008073ffffffffffffffffffffffffffffffffffffffff166002600084815260200190815260200160002060009054906101000a900473ffffffffffffffffffffffffffffffffffffffff1673ffffffffffffffffffffffffffffffffffffffff1614159050919050565b600033905090565b816004600083815260200190815260200160002060006101000a81548173ffffffffffffffffffffffffffffffffffffffff021916908373ffffffffffffffffffffffffffffffffffffffff160217905550808273ffffffffffffffffffffffffffffffffffffffff166111ea83610b27565b73ffffffffffffffffffffffffffffffffffffffff167f8c5be1e5ebec7d5bd14f71427d1e84f3dd0314c0f7b2291e5b200ac8c7c3b92560405160405180910390a45050565b600061123b82611103565b61127a576040517f08c379a000000000000000000000000000000000000000000000000000000000815260040161127190612805565b60405180910390fd5b600061128583610b27565b90508073ffffffffffffffffffffffffffffffffffffffff168473ffffffffffffffffffffffffffffffffffffffff1614806112f457508373ffffffffffffffffffffffffffffffffffffffff166112dc84610583565b73ffffffffffffffffffffffffffffffffffffffff16145b8061130557506113048185611005565b5b91505092915050565b8273ffffffffffffffffffffffffffffffffffffffff1661132e82610b27565b73ffffffffffffffffffffffffffffffffffffffff1614611384576040517f08c379a000000000000000000000000000000000000000000000000000000000815260040161137b90612905565b60405180910390fd5b600073ffffffffffffffffffffffffffffffffffffffff168273ffffffffffffffffffffffffffffffffffffffff1614156113f4576040517f08c379a00000000000000000000000000000000000000000000000000000000081526004016113eb906127c5565b60405180910390fd5b6113ff838383611a57565b61140a600082611177565b6001600360008573ffffffffffffffffffffffffffffffffffffffff1673ffffffffffffffffffffffffffffffffffffffff168152602001908152602001600020600082825461145a9190612b74565b925050819055506001600360008473ffffffffffffffffffffffffffffffffffffffff1673ffffffffffffffffffffffffffffffffffffffff16815260200190815260200160002060008282546114b19190612aed565b92505081905550816002600083815260200190815260200160002060006101000a81548173ffffffffffffffffffffffffffffffffffffffff021916908373ffffffffffffffffffffffffffffffffffffffff160217905550808273ffffffffffffffffffffffffffffffffffffffff168473ffffffffffffffffffffffffffffffffffffffff167fddf252ad1be2c89b69c2b068fc378daa952ba7f163c4a11628f55a4df523b3ef60405160405180910390a4505050565b6001816000016000828254019250508190555050565b600081600001549050919050565b600073ffffffffffffffffffffffffffffffffffffffff168273ffffffffffffffffffffffffffffffffffffffff1614156115fe576040517f08c379a00000000000000000000000000000000000000000000000000000000081526004016115f5906128a5565b60405180910390fd5b61160781611103565b15611647576040517f08c379a000000000000000000000000000000000000000000000000000000000815260040161163e906127a5565b60405180910390fd5b61165360008383611a57565b6001600360008473ffffffffffffffffffffffffffffffffffffffff1673ffffffffffffffffffffffffffffffffffffffff16815260200190815260200160002060008282546116a39190612aed565b92505081905550816002600083815260200190815260200160002060006101000a81548173ffffffffffffffffffffffffffffffffffffffff021916908373ffffffffffffffffffffffffffffffffffffffff160217905550808273ffffffffffffffffffffffffffffffffffffffff16600073ffffffffffffffffffffffffffffffffffffffff167fddf252ad1be2c89b69c2b068fc378daa952ba7f163c4a11628f55a4df523b3ef60405160405180910390a45050565b61176582611103565b6117a4576040517f08c379a000000000000000000000000000000000000000000000000000000000815260040161179b90612885565b60405180910390fd5b806006600084815260200190815260200160002090805190602001906117cb929190611db3565b505050565b8173ffffffffffffffffffffffffffffffffffffffff168373ffffffffffffffffffffffffffffffffffffffff16141561183f576040517f08c379a0000000000000000000000000000000000000000000000000000000008152600401611836906127e5565b60405180910390fd5b80600560008573ffffffffffffffffffffffffffffffffffffffff1673ffffffffffffffffffffffffffffffffffffffff16815260200190815260200160002060008473ffffffffffffffffffffffffffffffffffffffff1673ffffffffffffffffffffffffffffffffffffffff16815260200190815260200160002060006101000a81548160ff0219169083151502179055508173ffffffffffffffffffffffffffffffffffffffff168373ffffffffffffffffffffffffffffffffffffffff167f17307eab39ab6107e8899845ad3d59bd9653f200f220920489ca2b5937696c31836040516119309190612748565b60405180910390a3505050565b61194884848461130e565b61195484848484611a5c565b611993576040517f08c379a000000000000000000000000000000000000000000000000000000000815260040161198a90612785565b60405180910390fd5b50505050565b606060405180602001604052806000815250905090565b60606119bb82611103565b6119fa576040517f08c379a00000000000000000000000000000000000000000000000000000000081526004016119f190612925565b60405180910390fd5b6000611a04611999565b90506000815111611a245760405180602001604052806000815250611a4f565b80611a2e84611bf3565b604051602001611a3f929190612650565b6040516020818303038152906040525b915050919050565b505050565b6000611a7d8473ffffffffffffffffffffffffffffffffffffffff16611da0565b15611be6578373ffffffffffffffffffffffffffffffffffffffff1663150b7a02611aa661116f565b8786866040518563ffffffff1660e01b8152600401611ac8949392919061268f565b602060405180830381600087803b158015611ae257600080fd5b505af1925050508015611b1357506040513d601f19601f82011682018060405250810190611b10919061215f565b60015b611b96573d8060008114611b43576040519150601f19603f3d011682016040523d82523d6000602084013e611b48565b606091505b50600081511415611b8e576040517f08c379a0000000000000000000000000000000000000000000000000000000008152600401611b8590612785565b60405180910390fd5b805181602001fd5b63150b7a0260e01b7bffffffffffffffffffffffffffffffffffffffffffffffffffffffff1916817bffffffffffffffffffffffffffffffffffffffffffffffffffffffff191614915050611beb565b600190505b949350505050565b60606000821415611c3b576040518060400160405280600181526020017f30000000000000000000000000000000000000000000000000000000000000008152509050611d9b565b600082905060005b60008214611c6d578080611c5690612cc1565b915050600a82611c669190612b43565b9150611c43565b60008167ffffffffffffffff811115611caf577f4e487b7100000000000000000000000000000000000000000000000000000000600052604160045260246000fd5b6040519080825280601f01601f191660200182016040528015611ce15781602001600182028036833780820191505090505b5090505b60008514611d9457600182611cfa9190612b74565b9150600a85611d099190612d0a565b6030611d159190612aed565b60f81b818381518110611d51577f4e487b7100000000000000000000000000000000000000000000000000000000600052603260045260246000fd5b60200101907effffffffffffffffffffffffffffffffffffffffffffffffffffffffffffff1916908160001a905350600a85611d8d9190612b43565b9450611ce5565b8093505050505b919050565b600080823b905060008111915050919050565b828054611dbf90612c5e565b90600052602060002090601f016020900481019282611de15760008555611e28565b82601f10611dfa57805160ff1916838001178555611e28565b82800160010185558215611e28579182015b82811115611e27578251825591602001919060010190611e0c565b5b509050611e359190611e39565b5090565b5b80821115611e52576000816000905550600101611e3a565b5090565b6000611e69611e64846129c5565b6129a0565b905082815260208101848484011115611e8157600080fd5b611e8c848285612c1c565b509392505050565b6000611ea7611ea2846129f6565b6129a0565b905082815260208101848484011115611ebf57600080fd5b611eca848285612c1c565b509392505050565b600081359050611ee181613286565b92915050565b600081359050611ef68161329d565b92915050565b600081359050611f0b816132b4565b92915050565b600081519050611f20816132b4565b92915050565b600082601f830112611f3757600080fd5b8135611f47848260208601611e56565b91505092915050565b600082601f830112611f6157600080fd5b8135611f71848260208601611e94565b91505092915050565b600081359050611f89816132cb565b92915050565b600060208284031215611fa157600080fd5b6000611faf84828501611ed2565b91505092915050565b60008060408385031215611fcb57600080fd5b6000611fd985828601611ed2565b9250506020611fea85828601611ed2565b9150509250929050565b60008060006060848603121561200957600080fd5b600061201786828701611ed2565b935050602061202886828701611ed2565b925050604061203986828701611f7a565b9150509250925092565b6000806000806080858703121561205957600080fd5b600061206787828801611ed2565b945050602061207887828801611ed2565b935050604061208987828801611f7a565b925050606085013567ffffffffffffffff8111156120a657600080fd5b6120b287828801611f26565b91505092959194509250565b600080604083850312156120d157600080fd5b60006120df85828601611ed2565b92505060206120f085828601611ee7565b9150509250929050565b6000806040838503121561210d57600080fd5b600061211b85828601611ed2565b925050602061212c85828601611f7a565b9150509250929050565b60006020828403121561214857600080fd5b600061215684828501611efc565b91505092915050565b60006020828403121561217157600080fd5b600061217f84828501611f11565b91505092915050565b60006020828403121561219a57600080fd5b600082013567ffffffffffffffff8111156121b457600080fd5b6121c084828501611f50565b91505092915050565b6000602082840312156121db57600080fd5b60006121e984828501611f7a565b91505092915050565b60006121fe8383612348565b905092915050565b6000612212838361261b565b60208301905092915050565b61222781612ba8565b82525050565b600061223882612a47565b6122428185612a8d565b93508360208202850161225485612a27565b8060005b85811015612290578484038952815161227185826121f2565b945061227c83612a73565b925060208a01995050600181019050612258565b50829750879550505050505092915050565b60006122ad82612a52565b6122b78185612a9e565b93506122c283612a37565b8060005b838110156122f35781516122da8882612206565b97506122e583612a80565b9250506001810190506122c6565b5085935050505092915050565b61230981612bba565b82525050565b600061231a82612a5d565b6123248185612aaf565b9350612334818560208601612c2b565b61233d81612df7565b840191505092915050565b600061235382612a68565b61235d8185612ac0565b935061236d818560208601612c2b565b61237681612df7565b840191505092915050565b600061238c82612a68565b6123968185612ad1565b93506123a6818560208601612c2b565b6123af81612df7565b840191505092915050565b60006123c582612a68565b6123cf8185612ae2565b93506123df818560208601612c2b565b80840191505092915050565b60006123f8603283612ad1565b915061240382612e08565b604082019050919050565b600061241b601c83612ad1565b915061242682612e57565b602082019050919050565b600061243e602483612ad1565b915061244982612e80565b604082019050919050565b6000612461601983612ad1565b915061246c82612ecf565b602082019050919050565b6000612484602c83612ad1565b915061248f82612ef8565b604082019050919050565b60006124a7603883612ad1565b91506124b282612f47565b604082019050919050565b60006124ca602a83612ad1565b91506124d582612f96565b604082019050919050565b60006124ed602983612ad1565b91506124f882612fe5565b604082019050919050565b6000612510602e83612ad1565b915061251b82613034565b604082019050919050565b6000612533602083612ad1565b915061253e82613083565b602082019050919050565b6000612556603183612ad1565b9150612561826130ac565b604082019050919050565b6000612579602c83612ad1565b9150612584826130fb565b604082019050919050565b600061259c602983612ad1565b91506125a78261314a565b604082019050919050565b60006125bf602f83612ad1565b91506125ca82613199565b604082019050919050565b60006125e2602183612ad1565b91506125ed826131e8565b604082019050919050565b6000612605603183612ad1565b915061261082613237565b604082019050919050565b61262481612c12565b82525050565b61263381612c12565b82525050565b600061264582846123ba565b915081905092915050565b600061265c82856123ba565b915061266882846123ba565b91508190509392505050565b6000602082019050612689600083018461221e565b92915050565b60006080820190506126a4600083018761221e565b6126b1602083018661221e565b6126be604083018561262a565b81810360608301526126d0818461230f565b905095945050505050565b60006040820190506126f0600083018561221e565b6126fd602083018461262a565b9392505050565b6000602082019050818103600083015261271e818461222d565b905092915050565b6000602082019050818103600083015261274081846122a2565b905092915050565b600060208201905061275d6000830184612300565b92915050565b6000602082019050818103600083015261277d8184612381565b905092915050565b6000602082019050818103600083015261279e816123eb565b9050919050565b600060208201905081810360008301526127be8161240e565b9050919050565b600060208201905081810360008301526127de81612431565b9050919050565b600060208201905081810360008301526127fe81612454565b9050919050565b6000602082019050818103600083015261281e81612477565b9050919050565b6000602082019050818103600083015261283e8161249a565b9050919050565b6000602082019050818103600083015261285e816124bd565b9050919050565b6000602082019050818103600083015261287e816124e0565b9050919050565b6000602082019050818103600083015261289e81612503565b9050919050565b600060208201905081810360008301526128be81612526565b9050919050565b600060208201905081810360008301526128de81612549565b9050919050565b600060208201905081810360008301526128fe8161256c565b9050919050565b6000602082019050818103600083015261291e8161258f565b9050919050565b6000602082019050818103600083015261293e816125b2565b9050919050565b6000602082019050818103600083015261295e816125d5565b9050919050565b6000602082019050818103600083015261297e816125f8565b9050919050565b600060208201905061299a600083018461262a565b92915050565b60006129aa6129bb565b90506129b68282612c90565b919050565b6000604051905090565b600067ffffffffffffffff8211156129e0576129df612dc8565b5b6129e982612df7565b9050602081019050919050565b600067ffffffffffffffff821115612a1157612a10612dc8565b5b612a1a82612df7565b9050602081019050919050565b6000819050602082019050919050565b6000819050602082019050919050565b600081519050919050565b600081519050919050565b600081519050919050565b600081519050919050565b6000602082019050919050565b6000602082019050919050565b600082825260208201905092915050565b600082825260208201905092915050565b600082825260208201905092915050565b600082825260208201905092915050565b600082825260208201905092915050565b600081905092915050565b6000612af882612c12565b9150612b0383612c12565b9250827fffffffffffffffffffffffffffffffffffffffffffffffffffffffffffffffff03821115612b3857612b37612d3b565b5b828201905092915050565b6000612b4e82612c12565b9150612b5983612c12565b925082612b6957612b68612d6a565b5b828204905092915050565b6000612b7f82612c12565b9150612b8a83612c12565b925082821015612b9d57612b9c612d3b565b5b828203905092915050565b6000612bb382612bf2565b9050919050565b60008115159050919050565b60007fffffffff0000000000000000000000000000000000000000000000000000000082169050919050565b600073ffffffffffffffffffffffffffffffffffffffff82169050919050565b6000819050919050565b82818337600083830152505050565b60005b83811015612c49578082015181840152602081019050612c2e565b83811115612c58576000848401525b50505050565b60006002820490506001821680612c7657607f821691505b60208210811415612c8a57612c89612d99565b5b50919050565b612c9982612df7565b810181811067ffffffffffffffff82111715612cb857612cb7612dc8565b5b80604052505050565b6000612ccc82612c12565b91507fffffffffffffffffffffffffffffffffffffffffffffffffffffffffffffffff821415612cff57612cfe612d3b565b5b600182019050919050565b6000612d1582612c12565b9150612d2083612c12565b925082612d3057612d2f612d6a565b5b828206905092915050565b7f4e487b7100000000000000000000000000000000000000000000000000000000600052601160045260246000fd5b7f4e487b7100000000000000000000000000000000000000000000000000000000600052601260045260246000fd5b7f4e487b7100000000000000000000000000000000000000000000000000000000600052602260045260246000fd5b7f4e487b7100000000000000000000000000000000000000000000000000000000600052604160045260246000fd5b6000601f19601f8301169050919050565b7f4552433732313a207472616e7366657220746f206e6f6e20455243373231526560008201527f63656976657220696d706c656d656e7465720000000000000000000000000000602082015250565b7f4552433732313a20746f6b656e20616c7265616479206d696e74656400000000600082015250565b7f4552433732313a207472616e7366657220746f20746865207a65726f2061646460008201527f7265737300000000000000000000000000000000000000000000000000000000602082015250565b7f4552433732313a20617070726f766520746f2063616c6c657200000000000000600082015250565b7f4552433732313a206f70657261746f7220717565727920666f72206e6f6e657860008201527f697374656e7420746f6b656e0000000000000000000000000000000000000000602082015250565b7f4552433732313a20617070726f76652063616c6c6572206973206e6f74206f7760008201527f6e6572206e6f7220617070726f76656420666f7220616c6c0000000000000000602082015250565b7f4552433732313a2062616c616e636520717565727920666f7220746865207a6560008201527f726f206164647265737300000000000000000000000000000000000000000000602082015250565b7f4552433732313a206f776e657220717565727920666f72206e6f6e657869737460008201527f656e7420746f6b656e0000000000000000000000000000000000000000000000602082015250565b7f45524337323155524953746f726167653a2055524920736574206f66206e6f6e60008201527f6578697374656e7420746f6b656e000000000000000000000000000000000000602082015250565b7f4552433732313a206d696e7420746f20746865207a65726f2061646472657373600082015250565b7f45524337323155524953746f726167653a2055524920717565727920666f722060008201527f6e6f6e6578697374656e7420746f6b656e000000000000000000000000000000602082015250565b7f4552433732313a20617070726f76656420717565727920666f72206e6f6e657860008201527f697374656e7420746f6b656e0000000000000000000000000000000000000000602082015250565b7f4552433732313a207472616e73666572206f6620746f6b656e2074686174206960008201527f73206e6f74206f776e0000000000000000000000000000000000000000000000602082015250565b7f4552433732314d657461646174613a2055524920717565727920666f72206e6f60008201527f6e6578697374656e7420746f6b656e0000000000000000000000000000000000602082015250565b7f4552433732313a20617070726f76616c20746f2063757272656e74206f776e6560008201527f7200000000000000000000000000000000000000000000000000000000000000602082015250565b7f4552433732313a207472616e736665722063616c6c6572206973206e6f74206f60008201527f776e6572206e6f7220617070726f766564000000000000000000000000000000602082015250565b61328f81612ba8565b811461329a57600080fd5b50565b6132a681612bba565b81146132b157600080fd5b50565b6132bd81612bc6565b81146132c857600080fd5b50565b6132d481612c12565b81146132df57600080fd5b5056fea26469706673582212204db552bb294723ffd70fb1b4608b7715b0b5f66685b44122e85ce09dd55e74fb64736f6c63430008020033",
  "immutableReferences": {},
  "source": "// contracts/GameItem.sol\r\n// SPDX-License-Identifier: MIT\r\npragma solidity >=0.8.0 <0.9.0;\r\n// import \"@openzeppelin/contracts-upgradeable/proxy/utils/Initializable.sol\";\r\nimport \"@openzeppelin/contracts/token/ERC721/extensions/ERC721URIStorage.sol\";\r\nimport \"@openzeppelin/contracts/utils/Counters.sol\";\r\n\r\ncontract Asset is ERC721URIStorage {\r\n    using Counters for Counters.Counter;\r\n    Counters.Counter private _tokenIds;\r\n    uint256 public value;\r\n    mapping(address => uint256[]) public ownerTokens;\r\n\r\n    event TokenEmitted(string indexed symbol, address _sender, uint256 _id);\r\n\r\n    constructor() ERC721(\"NextFrame\", \"NXF\") {\r\n        value = 0;\r\n    }\r\n\r\n    function mintAsset(string memory _tokenURI) public returns (uint256) {\r\n        _tokenIds.increment();\r\n\r\n        uint256 newItemId = _tokenIds.current();\r\n        _mint(msg.sender, newItemId);\r\n        _setTokenURI(newItemId, _tokenURI);\r\n        ownerTokens[msg.sender].push(newItemId);\r\n\r\n        emit TokenEmitted(symbol(), msg.sender, newItemId);\r\n\r\n        return newItemId;\r\n    }\r\n\r\n    function getTotalAssets() public view returns (uint256) {\r\n        return _tokenIds.current();\r\n    }\r\n\r\n    function getAllTokenURIs() public view returns (string[] memory) {\r\n        string[] memory tokenURIs = new string[](getTotalAssets());\r\n        for (uint256 i = 0; i < getTotalAssets(); i++) {\r\n            tokenURIs[i] = tokenURI(i + 1);\r\n        }\r\n        return tokenURIs;\r\n    }\r\n\r\n    function getOwnedTokens() public view returns (uint256[] memory) {\r\n        uint256[] memory ret = ownerTokens[msg.sender];\r\n        return ret;\r\n    }\r\n\r\n    function getOwnedTokensURIs() public view returns (string[] memory) {\r\n        uint256[] memory ret = ownerTokens[msg.sender];\r\n        string[] memory tokenURIs = new string[](ret.length);\r\n        for (uint256 i = 0; i < ret.length; i++) {\r\n            tokenURIs[i] = tokenURI(ret[i]);\r\n        }\r\n        return tokenURIs;\r\n    }\r\n\r\n    // function _beforeTokenTransfer(\r\n    //     address, /*from*/\r\n    //     address to,\r\n    //     uint256 /*tokenId*/\r\n    // ) internal override {\r\n    //     _changeReceiver(to);\r\n    // }\r\n}\r\n",
  "sourcePath": "C:\\Code\\next-frame-dapp\\contracts\\Asset.sol",
  "compiler": {
    "name": "solc",
    "version": "0.8.2+commit.661d1103.Emscripten.clang"
  },
  "schemaVersion": "3.4.4",
  "updatedAt": "2022-02-06T18:27:50.462Z",
  "devdoc": {
    "kind": "dev",
    "methods": {
      "approve(address,uint256)": {
        "details": "See {IERC721-approve}."
      },
      "balanceOf(address)": {
        "details": "See {IERC721-balanceOf}."
      },
      "getApproved(uint256)": {
        "details": "See {IERC721-getApproved}."
      },
      "isApprovedForAll(address,address)": {
        "details": "See {IERC721-isApprovedForAll}."
      },
      "name()": {
        "details": "See {IERC721Metadata-name}."
      },
      "ownerOf(uint256)": {
        "details": "See {IERC721-ownerOf}."
      },
      "safeTransferFrom(address,address,uint256)": {
        "details": "See {IERC721-safeTransferFrom}."
      },
      "safeTransferFrom(address,address,uint256,bytes)": {
        "details": "See {IERC721-safeTransferFrom}."
      },
      "setApprovalForAll(address,bool)": {
        "details": "See {IERC721-setApprovalForAll}."
      },
      "supportsInterface(bytes4)": {
        "details": "See {IERC165-supportsInterface}."
      },
      "symbol()": {
        "details": "See {IERC721Metadata-symbol}."
      },
      "tokenURI(uint256)": {
        "details": "See {IERC721Metadata-tokenURI}."
      },
      "transferFrom(address,address,uint256)": {
        "details": "See {IERC721-transferFrom}."
      }
    },
    "version": 1
  },
  "userdoc": {
    "kind": "user",
    "methods": {},
    "version": 1
  }
}