{
  "contractName": "Composer",
  "abi": [
    {
      "inputs": [
        {
          "internalType": "contract Asset[]",
          "name": "assetAddresses",
          "type": "address[]"
        }
      ],
      "stateMutability": "nonpayable",
      "type": "constructor"
    },
    {
      "anonymous": false,
      "inputs": [
        {
          "indexed": true,
          "internalType": "address",
          "name": "owner",
          "type": "address"
        },
        {
          "indexed": true,
          "internalType": "address",
          "name": "approved",
          "type": "address"
        },
        {
          "indexed": true,
          "internalType": "uint256",
          "name": "tokenId",
          "type": "uint256"
        }
      ],
      "name": "Approval",
      "type": "event"
    },
    {
      "anonymous": false,
      "inputs": [
        {
          "indexed": true,
          "internalType": "address",
          "name": "owner",
          "type": "address"
        },
        {
          "indexed": true,
          "internalType": "address",
          "name": "operator",
          "type": "address"
        },
        {
          "indexed": false,
          "internalType": "bool",
          "name": "approved",
          "type": "bool"
        }
      ],
      "name": "ApprovalForAll",
      "type": "event"
    },
    {
      "anonymous": false,
      "inputs": [
        {
          "indexed": true,
          "internalType": "string",
          "name": "symbol",
          "type": "string"
        },
        {
          "indexed": false,
          "internalType": "address",
          "name": "_sender",
          "type": "address"
        },
        {
          "indexed": false,
          "internalType": "uint256",
          "name": "_id",
          "type": "uint256"
        }
      ],
      "name": "TokenEmitted",
      "type": "event"
    },
    {
      "anonymous": false,
      "inputs": [
        {
          "indexed": true,
          "internalType": "address",
          "name": "from",
          "type": "address"
        },
        {
          "indexed": true,
          "internalType": "address",
          "name": "to",
          "type": "address"
        },
        {
          "indexed": true,
          "internalType": "uint256",
          "name": "tokenId",
          "type": "uint256"
        }
      ],
      "name": "Transfer",
      "type": "event"
    },
    {
      "inputs": [
        {
          "internalType": "address",
          "name": "to",
          "type": "address"
        },
        {
          "internalType": "uint256",
          "name": "tokenId",
          "type": "uint256"
        }
      ],
      "name": "approve",
      "outputs": [],
      "stateMutability": "nonpayable",
      "type": "function"
    },
    {
      "inputs": [
        {
          "internalType": "uint256",
          "name": "",
          "type": "uint256"
        }
      ],
      "name": "assets",
      "outputs": [
        {
          "internalType": "contract Asset",
          "name": "",
          "type": "address"
        }
      ],
      "stateMutability": "view",
      "type": "function"
    },
    {
      "inputs": [
        {
          "internalType": "address",
          "name": "owner",
          "type": "address"
        }
      ],
      "name": "balanceOf",
      "outputs": [
        {
          "internalType": "uint256",
          "name": "",
          "type": "uint256"
        }
      ],
      "stateMutability": "view",
      "type": "function"
    },
    {
      "inputs": [
        {
          "internalType": "uint256",
          "name": "tokenId",
          "type": "uint256"
        }
      ],
      "name": "getApproved",
      "outputs": [
        {
          "internalType": "address",
          "name": "",
          "type": "address"
        }
      ],
      "stateMutability": "view",
      "type": "function"
    },
    {
      "inputs": [
        {
          "internalType": "address",
          "name": "owner",
          "type": "address"
        },
        {
          "internalType": "address",
          "name": "operator",
          "type": "address"
        }
      ],
      "name": "isApprovedForAll",
      "outputs": [
        {
          "internalType": "bool",
          "name": "",
          "type": "bool"
        }
      ],
      "stateMutability": "view",
      "type": "function"
    },
    {
      "inputs": [],
      "name": "name",
      "outputs": [
        {
          "internalType": "string",
          "name": "",
          "type": "string"
        }
      ],
      "stateMutability": "view",
      "type": "function"
    },
    {
      "inputs": [
        {
          "internalType": "uint256",
          "name": "tokenId",
          "type": "uint256"
        }
      ],
      "name": "ownerOf",
      "outputs": [
        {
          "internalType": "address",
          "name": "",
          "type": "address"
        }
      ],
      "stateMutability": "view",
      "type": "function"
    },
    {
      "inputs": [
        {
          "internalType": "address",
          "name": "from",
          "type": "address"
        },
        {
          "internalType": "address",
          "name": "to",
          "type": "address"
        },
        {
          "internalType": "uint256",
          "name": "tokenId",
          "type": "uint256"
        }
      ],
      "name": "safeTransferFrom",
      "outputs": [],
      "stateMutability": "nonpayable",
      "type": "function"
    },
    {
      "inputs": [
        {
          "internalType": "address",
          "name": "from",
          "type": "address"
        },
        {
          "internalType": "address",
          "name": "to",
          "type": "address"
        },
        {
          "internalType": "uint256",
          "name": "tokenId",
          "type": "uint256"
        },
        {
          "internalType": "bytes",
          "name": "_data",
          "type": "bytes"
        }
      ],
      "name": "safeTransferFrom",
      "outputs": [],
      "stateMutability": "nonpayable",
      "type": "function"
    },
    {
      "inputs": [
        {
          "internalType": "address",
          "name": "operator",
          "type": "address"
        },
        {
          "internalType": "bool",
          "name": "approved",
          "type": "bool"
        }
      ],
      "name": "setApprovalForAll",
      "outputs": [],
      "stateMutability": "nonpayable",
      "type": "function"
    },
    {
      "inputs": [
        {
          "internalType": "bytes4",
          "name": "interfaceId",
          "type": "bytes4"
        }
      ],
      "name": "supportsInterface",
      "outputs": [
        {
          "internalType": "bool",
          "name": "",
          "type": "bool"
        }
      ],
      "stateMutability": "view",
      "type": "function"
    },
    {
      "inputs": [],
      "name": "symbol",
      "outputs": [
        {
          "internalType": "string",
          "name": "",
          "type": "string"
        }
      ],
      "stateMutability": "view",
      "type": "function"
    },
    {
      "inputs": [
        {
          "internalType": "uint256",
          "name": "tokenId",
          "type": "uint256"
        }
      ],
      "name": "tokenURI",
      "outputs": [
        {
          "internalType": "string",
          "name": "",
          "type": "string"
        }
      ],
      "stateMutability": "view",
      "type": "function"
    },
    {
      "inputs": [
        {
          "internalType": "address",
          "name": "from",
          "type": "address"
        },
        {
          "internalType": "address",
          "name": "to",
          "type": "address"
        },
        {
          "internalType": "uint256",
          "name": "tokenId",
          "type": "uint256"
        }
      ],
      "name": "transferFrom",
      "outputs": [],
      "stateMutability": "nonpayable",
      "type": "function"
    },
    {
      "inputs": [],
      "name": "value",
      "outputs": [
        {
          "internalType": "uint256",
          "name": "",
          "type": "uint256"
        }
      ],
      "stateMutability": "view",
      "type": "function"
    },
    {
      "inputs": [
        {
          "internalType": "string",
          "name": "_tokenURI",
          "type": "string"
        }
      ],
      "name": "mintAsset",
      "outputs": [
        {
          "internalType": "uint256",
          "name": "",
          "type": "uint256"
        }
      ],
      "stateMutability": "nonpayable",
      "type": "function"
    }
  ],
  "bytecode": "0x60806040523480156200001157600080fd5b50604051620031b0380380620031b08339818101604052810190620000379190620002f7565b6040518060400160405280600981526020017f4e6578744672616d6500000000000000000000000000000000000000000000008152506040518060400160405280600381526020017f4e584600000000000000000000000000000000000000000000000000000000008152508160009080519060200190620000bb929190620000ff565b508060019080519060200190620000d4929190620000ff565b5050508060089080519060200190620000ef92919062000190565b50600060078190555050620004d1565b8280546200010d90620003dc565b90600052602060002090601f0160209004810192826200013157600085556200017d565b82601f106200014c57805160ff19168380011785556200017d565b828001600101855582156200017d579182015b828111156200017c5782518255916020019190600101906200015f565b5b5090506200018c91906200021f565b5090565b8280548282559060005260206000209081019282156200020c579160200282015b828111156200020b5782518260006101000a81548173ffffffffffffffffffffffffffffffffffffffff021916908373ffffffffffffffffffffffffffffffffffffffff16021790555091602001919060010190620001b1565b5b5090506200021b91906200021f565b5090565b5b808211156200023a57600081600090555060010162000220565b5090565b6000620002556200024f8462000365565b6200033c565b905080838252602082019050828560208602820111156200027557600080fd5b60005b85811015620002a957816200028e8882620002e0565b84526020840193506020830192505060018101905062000278565b5050509392505050565b600082601f830112620002c557600080fd5b8151620002d78482602086016200023e565b91505092915050565b600081519050620002f181620004b7565b92915050565b6000602082840312156200030a57600080fd5b600082015167ffffffffffffffff8111156200032557600080fd5b6200033384828501620002b3565b91505092915050565b6000620003486200035b565b905062000356828262000412565b919050565b6000604051905090565b600067ffffffffffffffff82111562000383576200038262000477565b5b602082029050602081019050919050565b6000620003a182620003bc565b9050919050565b6000620003b58262000394565b9050919050565b600073ffffffffffffffffffffffffffffffffffffffff82169050919050565b60006002820490506001821680620003f557607f821691505b602082108114156200040c576200040b62000448565b5b50919050565b6200041d82620004a6565b810181811067ffffffffffffffff821117156200043f576200043e62000477565b5b80604052505050565b7f4e487b7100000000000000000000000000000000000000000000000000000000600052602260045260246000fd5b7f4e487b7100000000000000000000000000000000000000000000000000000000600052604160045260246000fd5b6000601f19601f8301169050919050565b620004c281620003a8565b8114620004ce57600080fd5b50565b612ccf80620004e16000396000f3fe608060405234801561001057600080fd5b50600436106101005760003560e01c80636352211e11610097578063b88d4fde11610066578063b88d4fde146102bf578063c87b56dd146102db578063cf35bdd01461030b578063e985e9c51461033b57610100565b80636352211e1461022557806370a082311461025557806395d89b4114610285578063a22cb465146102a357610100565b806323b872dd116100d357806323b872dd1461019f5780633fa4f245146101bb57806342842e0e146101d957806343b78e19146101f557610100565b806301ffc9a71461010557806306fdde0314610135578063081812fc14610153578063095ea7b314610183575b600080fd5b61011f600480360381019061011a9190611c8c565b61036b565b60405161012c9190612131565b60405180910390f35b61013d61044d565b60405161014a9190612167565b60405180910390f35b61016d60048036038101906101689190611d1f565b6104df565b60405161017a91906120a1565b60405180910390f35b61019d60048036038101906101989190611c50565b610564565b005b6101b960048036038101906101b49190611b4a565b61067c565b005b6101c36106dc565b6040516101d09190612389565b60405180910390f35b6101f360048036038101906101ee9190611b4a565b6106e2565b005b61020f600480360381019061020a9190611cde565b610702565b60405161021c9190612389565b60405180910390f35b61023f600480360381019061023a9190611d1f565b61077a565b60405161024c91906120a1565b60405180910390f35b61026f600480360381019061026a9190611ae5565b61082c565b60405161027c9190612389565b60405180910390f35b61028d6108e4565b60405161029a9190612167565b60405180910390f35b6102bd60048036038101906102b89190611c14565b610976565b005b6102d960048036038101906102d49190611b99565b61098c565b005b6102f560048036038101906102f09190611d1f565b6109ee565b6040516103029190612167565b60405180910390f35b61032560048036038101906103209190611d1f565b610b40565b604051610332919061214c565b60405180910390f35b61035560048036038101906103509190611b0e565b610b7f565b6040516103629190612131565b60405180910390f35b60007f80ac58cd000000000000000000000000000000000000000000000000000000007bffffffffffffffffffffffffffffffffffffffffffffffffffffffff1916827bffffffffffffffffffffffffffffffffffffffffffffffffffffffff1916148061043657507f5b5e139f000000000000000000000000000000000000000000000000000000007bffffffffffffffffffffffffffffffffffffffffffffffffffffffff1916827bffffffffffffffffffffffffffffffffffffffffffffffffffffffff1916145b80610446575061044582610c13565b5b9050919050565b60606000805461045c90612615565b80601f016020809104026020016040519081016040528092919081815260200182805461048890612615565b80156104d55780601f106104aa576101008083540402835291602001916104d5565b820191906000526020600020905b8154815290600101906020018083116104b857829003601f168201915b5050505050905090565b60006104ea82610c7d565b610529576040517f08c379a0000000000000000000000000000000000000000000000000000000008152600401610520906122e9565b60405180910390fd5b6004600083815260200190815260200160002060009054906101000a900473ffffffffffffffffffffffffffffffffffffffff169050919050565b600061056f8261077a565b90508073ffffffffffffffffffffffffffffffffffffffff168373ffffffffffffffffffffffffffffffffffffffff1614156105e0576040517f08c379a00000000000000000000000000000000000000000000000000000000081526004016105d790612349565b60405180910390fd5b8073ffffffffffffffffffffffffffffffffffffffff166105ff610ce9565b73ffffffffffffffffffffffffffffffffffffffff16148061062e575061062d81610628610ce9565b610b7f565b5b61066d576040517f08c379a000000000000000000000000000000000000000000000000000000000815260040161066490612229565b60405180910390fd5b6106778383610cf1565b505050565b61068d610687610ce9565b82610daa565b6106cc576040517f08c379a00000000000000000000000000000000000000000000000000000000081526004016106c390612369565b60405180910390fd5b6106d7838383610e88565b505050565b60075481565b6106fd8383836040518060200160405280600081525061098c565b505050565b600061070f3360016110e4565b61071a6001836112b2565b6107226108e4565b60405161072f9190612066565b60405180910390207ff0a178341e398e16706cb3f661f1e0f760799367f4b4d00792509d23b2437869336001604051610769929190612108565b60405180910390a260019050919050565b6000806002600084815260200190815260200160002060009054906101000a900473ffffffffffffffffffffffffffffffffffffffff169050600073ffffffffffffffffffffffffffffffffffffffff168173ffffffffffffffffffffffffffffffffffffffff161415610823576040517f08c379a000000000000000000000000000000000000000000000000000000000815260040161081a90612269565b60405180910390fd5b80915050919050565b60008073ffffffffffffffffffffffffffffffffffffffff168273ffffffffffffffffffffffffffffffffffffffff16141561089d576040517f08c379a000000000000000000000000000000000000000000000000000000000815260040161089490612249565b60405180910390fd5b600360008373ffffffffffffffffffffffffffffffffffffffff1673ffffffffffffffffffffffffffffffffffffffff168152602001908152602001600020549050919050565b6060600180546108f390612615565b80601f016020809104026020016040519081016040528092919081815260200182805461091f90612615565b801561096c5780601f106109415761010080835404028352916020019161096c565b820191906000526020600020905b81548152906001019060200180831161094f57829003601f168201915b5050505050905090565b610988610981610ce9565b8383611326565b5050565b61099d610997610ce9565b83610daa565b6109dc576040517f08c379a00000000000000000000000000000000000000000000000000000000081526004016109d390612369565b60405180910390fd5b6109e884848484611493565b50505050565b60606109f982610c7d565b610a38576040517f08c379a0000000000000000000000000000000000000000000000000000000008152600401610a2f906122c9565b60405180910390fd5b6000600660008481526020019081526020016000208054610a5890612615565b80601f0160208091040260200160405190810160405280929190818152602001828054610a8490612615565b8015610ad15780601f10610aa657610100808354040283529160200191610ad1565b820191906000526020600020905b815481529060010190602001808311610ab457829003601f168201915b505050505090506000610ae26114ef565b9050600081511415610af8578192505050610b3b565b600082511115610b2d578082604051602001610b1592919061207d565b60405160208183030381529060405292505050610b3b565b610b3684611506565b925050505b919050565b60088181548110610b5057600080fd5b906000526020600020016000915054906101000a900473ffffffffffffffffffffffffffffffffffffffff1681565b6000600560008473ffffffffffffffffffffffffffffffffffffffff1673ffffffffffffffffffffffffffffffffffffffff16815260200190815260200160002060008373ffffffffffffffffffffffffffffffffffffffff1673ffffffffffffffffffffffffffffffffffffffff16815260200190815260200160002060009054906101000a900460ff16905092915050565b60007f01ffc9a7000000000000000000000000000000000000000000000000000000007bffffffffffffffffffffffffffffffffffffffffffffffffffffffff1916827bffffffffffffffffffffffffffffffffffffffffffffffffffffffff1916149050919050565b60008073ffffffffffffffffffffffffffffffffffffffff166002600084815260200190815260200160002060009054906101000a900473ffffffffffffffffffffffffffffffffffffffff1673ffffffffffffffffffffffffffffffffffffffff1614159050919050565b600033905090565b816004600083815260200190815260200160002060006101000a81548173ffffffffffffffffffffffffffffffffffffffff021916908373ffffffffffffffffffffffffffffffffffffffff160217905550808273ffffffffffffffffffffffffffffffffffffffff16610d648361077a565b73ffffffffffffffffffffffffffffffffffffffff167f8c5be1e5ebec7d5bd14f71427d1e84f3dd0314c0f7b2291e5b200ac8c7c3b92560405160405180910390a45050565b6000610db582610c7d565b610df4576040517f08c379a0000000000000000000000000000000000000000000000000000000008152600401610deb90612209565b60405180910390fd5b6000610dff8361077a565b90508073ffffffffffffffffffffffffffffffffffffffff168473ffffffffffffffffffffffffffffffffffffffff161480610e6e57508373ffffffffffffffffffffffffffffffffffffffff16610e56846104df565b73ffffffffffffffffffffffffffffffffffffffff16145b80610e7f5750610e7e8185610b7f565b5b91505092915050565b8273ffffffffffffffffffffffffffffffffffffffff16610ea88261077a565b73ffffffffffffffffffffffffffffffffffffffff1614610efe576040517f08c379a0000000000000000000000000000000000000000000000000000000008152600401610ef590612309565b60405180910390fd5b600073ffffffffffffffffffffffffffffffffffffffff168273ffffffffffffffffffffffffffffffffffffffff161415610f6e576040517f08c379a0000000000000000000000000000000000000000000000000000000008152600401610f65906121c9565b60405180910390fd5b610f798383836115ad565b610f84600082610cf1565b6001600360008573ffffffffffffffffffffffffffffffffffffffff1673ffffffffffffffffffffffffffffffffffffffff1681526020019081526020016000206000828254610fd491906124f5565b925050819055506001600360008473ffffffffffffffffffffffffffffffffffffffff1673ffffffffffffffffffffffffffffffffffffffff168152602001908152602001600020600082825461102b919061246e565b92505081905550816002600083815260200190815260200160002060006101000a81548173ffffffffffffffffffffffffffffffffffffffff021916908373ffffffffffffffffffffffffffffffffffffffff160217905550808273ffffffffffffffffffffffffffffffffffffffff168473ffffffffffffffffffffffffffffffffffffffff167fddf252ad1be2c89b69c2b068fc378daa952ba7f163c4a11628f55a4df523b3ef60405160405180910390a4505050565b600073ffffffffffffffffffffffffffffffffffffffff168273ffffffffffffffffffffffffffffffffffffffff161415611154576040517f08c379a000000000000000000000000000000000000000000000000000000000815260040161114b906122a9565b60405180910390fd5b61115d81610c7d565b1561119d576040517f08c379a0000000000000000000000000000000000000000000000000000000008152600401611194906121a9565b60405180910390fd5b6111a9600083836115ad565b6001600360008473ffffffffffffffffffffffffffffffffffffffff1673ffffffffffffffffffffffffffffffffffffffff16815260200190815260200160002060008282546111f9919061246e565b92505081905550816002600083815260200190815260200160002060006101000a81548173ffffffffffffffffffffffffffffffffffffffff021916908373ffffffffffffffffffffffffffffffffffffffff160217905550808273ffffffffffffffffffffffffffffffffffffffff16600073ffffffffffffffffffffffffffffffffffffffff167fddf252ad1be2c89b69c2b068fc378daa952ba7f163c4a11628f55a4df523b3ef60405160405180910390a45050565b6112bb82610c7d565b6112fa576040517f08c379a00000000000000000000000000000000000000000000000000000000081526004016112f190612289565b60405180910390fd5b80600660008481526020019081526020016000209080519060200190611321929190611909565b505050565b8173ffffffffffffffffffffffffffffffffffffffff168373ffffffffffffffffffffffffffffffffffffffff161415611395576040517f08c379a000000000000000000000000000000000000000000000000000000000815260040161138c906121e9565b60405180910390fd5b80600560008573ffffffffffffffffffffffffffffffffffffffff1673ffffffffffffffffffffffffffffffffffffffff16815260200190815260200160002060008473ffffffffffffffffffffffffffffffffffffffff1673ffffffffffffffffffffffffffffffffffffffff16815260200190815260200160002060006101000a81548160ff0219169083151502179055508173ffffffffffffffffffffffffffffffffffffffff168373ffffffffffffffffffffffffffffffffffffffff167f17307eab39ab6107e8899845ad3d59bd9653f200f220920489ca2b5937696c31836040516114869190612131565b60405180910390a3505050565b61149e848484610e88565b6114aa848484846115b2565b6114e9576040517f08c379a00000000000000000000000000000000000000000000000000000000081526004016114e090612189565b60405180910390fd5b50505050565b606060405180602001604052806000815250905090565b606061151182610c7d565b611550576040517f08c379a000000000000000000000000000000000000000000000000000000000815260040161154790612329565b60405180910390fd5b600061155a6114ef565b9050600081511161157a57604051806020016040528060008152506115a5565b8061158484611749565b60405160200161159592919061207d565b6040516020818303038152906040525b915050919050565b505050565b60006115d38473ffffffffffffffffffffffffffffffffffffffff166118f6565b1561173c578373ffffffffffffffffffffffffffffffffffffffff1663150b7a026115fc610ce9565b8786866040518563ffffffff1660e01b815260040161161e94939291906120bc565b602060405180830381600087803b15801561163857600080fd5b505af192505050801561166957506040513d601f19601f820116820180604052508101906116669190611cb5565b60015b6116ec573d8060008114611699576040519150601f19603f3d011682016040523d82523d6000602084013e61169e565b606091505b506000815114156116e4576040517f08c379a00000000000000000000000000000000000000000000000000000000081526004016116db90612189565b60405180910390fd5b805181602001fd5b63150b7a0260e01b7bffffffffffffffffffffffffffffffffffffffffffffffffffffffff1916817bffffffffffffffffffffffffffffffffffffffffffffffffffffffff191614915050611741565b600190505b949350505050565b60606000821415611791576040518060400160405280600181526020017f300000000000000000000000000000000000000000000000000000000000000081525090506118f1565b600082905060005b600082146117c35780806117ac90612678565b915050600a826117bc91906124c4565b9150611799565b60008167ffffffffffffffff811115611805577f4e487b7100000000000000000000000000000000000000000000000000000000600052604160045260246000fd5b6040519080825280601f01601f1916602001820160405280156118375781602001600182028036833780820191505090505b5090505b600085146118ea5760018261185091906124f5565b9150600a8561185f91906126c1565b603061186b919061246e565b60f81b8183815181106118a7577f4e487b7100000000000000000000000000000000000000000000000000000000600052603260045260246000fd5b60200101907effffffffffffffffffffffffffffffffffffffffffffffffffffffffffffff1916908160001a905350600a856118e391906124c4565b945061183b565b8093505050505b919050565b600080823b905060008111915050919050565b82805461191590612615565b90600052602060002090601f016020900481019282611937576000855561197e565b82601f1061195057805160ff191683800117855561197e565b8280016001018555821561197e579182015b8281111561197d578251825591602001919060010190611962565b5b50905061198b919061198f565b5090565b5b808211156119a8576000816000905550600101611990565b5090565b60006119bf6119ba846123c9565b6123a4565b9050828152602081018484840111156119d757600080fd5b6119e28482856125d3565b509392505050565b60006119fd6119f8846123fa565b6123a4565b905082815260208101848484011115611a1557600080fd5b611a208482856125d3565b509392505050565b600081359050611a3781612c3d565b92915050565b600081359050611a4c81612c54565b92915050565b600081359050611a6181612c6b565b92915050565b600081519050611a7681612c6b565b92915050565b600082601f830112611a8d57600080fd5b8135611a9d8482602086016119ac565b91505092915050565b600082601f830112611ab757600080fd5b8135611ac78482602086016119ea565b91505092915050565b600081359050611adf81612c82565b92915050565b600060208284031215611af757600080fd5b6000611b0584828501611a28565b91505092915050565b60008060408385031215611b2157600080fd5b6000611b2f85828601611a28565b9250506020611b4085828601611a28565b9150509250929050565b600080600060608486031215611b5f57600080fd5b6000611b6d86828701611a28565b9350506020611b7e86828701611a28565b9250506040611b8f86828701611ad0565b9150509250925092565b60008060008060808587031215611baf57600080fd5b6000611bbd87828801611a28565b9450506020611bce87828801611a28565b9350506040611bdf87828801611ad0565b925050606085013567ffffffffffffffff811115611bfc57600080fd5b611c0887828801611a7c565b91505092959194509250565b60008060408385031215611c2757600080fd5b6000611c3585828601611a28565b9250506020611c4685828601611a3d565b9150509250929050565b60008060408385031215611c6357600080fd5b6000611c7185828601611a28565b9250506020611c8285828601611ad0565b9150509250929050565b600060208284031215611c9e57600080fd5b6000611cac84828501611a52565b91505092915050565b600060208284031215611cc757600080fd5b6000611cd584828501611a67565b91505092915050565b600060208284031215611cf057600080fd5b600082013567ffffffffffffffff811115611d0a57600080fd5b611d1684828501611aa6565b91505092915050565b600060208284031215611d3157600080fd5b6000611d3f84828501611ad0565b91505092915050565b611d5181612529565b82525050565b611d608161253b565b82525050565b6000611d718261242b565b611d7b8185612441565b9350611d8b8185602086016125e2565b611d94816127ae565b840191505092915050565b611da88161259d565b82525050565b611db7816125c1565b82525050565b6000611dc882612436565b611dd28185612452565b9350611de28185602086016125e2565b611deb816127ae565b840191505092915050565b6000611e0182612436565b611e0b8185612463565b9350611e1b8185602086016125e2565b80840191505092915050565b6000611e34603283612452565b9150611e3f826127bf565b604082019050919050565b6000611e57601c83612452565b9150611e628261280e565b602082019050919050565b6000611e7a602483612452565b9150611e8582612837565b604082019050919050565b6000611e9d601983612452565b9150611ea882612886565b602082019050919050565b6000611ec0602c83612452565b9150611ecb826128af565b604082019050919050565b6000611ee3603883612452565b9150611eee826128fe565b604082019050919050565b6000611f06602a83612452565b9150611f118261294d565b604082019050919050565b6000611f29602983612452565b9150611f348261299c565b604082019050919050565b6000611f4c602e83612452565b9150611f57826129eb565b604082019050919050565b6000611f6f602083612452565b9150611f7a82612a3a565b602082019050919050565b6000611f92603183612452565b9150611f9d82612a63565b604082019050919050565b6000611fb5602c83612452565b9150611fc082612ab2565b604082019050919050565b6000611fd8602983612452565b9150611fe382612b01565b604082019050919050565b6000611ffb602f83612452565b915061200682612b50565b604082019050919050565b600061201e602183612452565b915061202982612b9f565b604082019050919050565b6000612041603183612452565b915061204c82612bee565b604082019050919050565b61206081612593565b82525050565b60006120728284611df6565b915081905092915050565b60006120898285611df6565b91506120958284611df6565b91508190509392505050565b60006020820190506120b66000830184611d48565b92915050565b60006080820190506120d16000830187611d48565b6120de6020830186611d48565b6120eb6040830185612057565b81810360608301526120fd8184611d66565b905095945050505050565b600060408201905061211d6000830185611d48565b61212a6020830184611dae565b9392505050565b60006020820190506121466000830184611d57565b92915050565b60006020820190506121616000830184611d9f565b92915050565b600060208201905081810360008301526121818184611dbd565b905092915050565b600060208201905081810360008301526121a281611e27565b9050919050565b600060208201905081810360008301526121c281611e4a565b9050919050565b600060208201905081810360008301526121e281611e6d565b9050919050565b6000602082019050818103600083015261220281611e90565b9050919050565b6000602082019050818103600083015261222281611eb3565b9050919050565b6000602082019050818103600083015261224281611ed6565b9050919050565b6000602082019050818103600083015261226281611ef9565b9050919050565b6000602082019050818103600083015261228281611f1c565b9050919050565b600060208201905081810360008301526122a281611f3f565b9050919050565b600060208201905081810360008301526122c281611f62565b9050919050565b600060208201905081810360008301526122e281611f85565b9050919050565b6000602082019050818103600083015261230281611fa8565b9050919050565b6000602082019050818103600083015261232281611fcb565b9050919050565b6000602082019050818103600083015261234281611fee565b9050919050565b6000602082019050818103600083015261236281612011565b9050919050565b6000602082019050818103600083015261238281612034565b9050919050565b600060208201905061239e6000830184612057565b92915050565b60006123ae6123bf565b90506123ba8282612647565b919050565b6000604051905090565b600067ffffffffffffffff8211156123e4576123e361277f565b5b6123ed826127ae565b9050602081019050919050565b600067ffffffffffffffff8211156124155761241461277f565b5b61241e826127ae565b9050602081019050919050565b600081519050919050565b600081519050919050565b600082825260208201905092915050565b600082825260208201905092915050565b600081905092915050565b600061247982612593565b915061248483612593565b9250827fffffffffffffffffffffffffffffffffffffffffffffffffffffffffffffffff038211156124b9576124b86126f2565b5b828201905092915050565b60006124cf82612593565b91506124da83612593565b9250826124ea576124e9612721565b5b828204905092915050565b600061250082612593565b915061250b83612593565b92508282101561251e5761251d6126f2565b5b828203905092915050565b600061253482612573565b9050919050565b60008115159050919050565b60007fffffffff0000000000000000000000000000000000000000000000000000000082169050919050565b600073ffffffffffffffffffffffffffffffffffffffff82169050919050565b6000819050919050565b60006125a8826125af565b9050919050565b60006125ba82612573565b9050919050565b60006125cc82612593565b9050919050565b82818337600083830152505050565b60005b838110156126005780820151818401526020810190506125e5565b8381111561260f576000848401525b50505050565b6000600282049050600182168061262d57607f821691505b6020821081141561264157612640612750565b5b50919050565b612650826127ae565b810181811067ffffffffffffffff8211171561266f5761266e61277f565b5b80604052505050565b600061268382612593565b91507fffffffffffffffffffffffffffffffffffffffffffffffffffffffffffffffff8214156126b6576126b56126f2565b5b600182019050919050565b60006126cc82612593565b91506126d783612593565b9250826126e7576126e6612721565b5b828206905092915050565b7f4e487b7100000000000000000000000000000000000000000000000000000000600052601160045260246000fd5b7f4e487b7100000000000000000000000000000000000000000000000000000000600052601260045260246000fd5b7f4e487b7100000000000000000000000000000000000000000000000000000000600052602260045260246000fd5b7f4e487b7100000000000000000000000000000000000000000000000000000000600052604160045260246000fd5b6000601f19601f8301169050919050565b7f4552433732313a207472616e7366657220746f206e6f6e20455243373231526560008201527f63656976657220696d706c656d656e7465720000000000000000000000000000602082015250565b7f4552433732313a20746f6b656e20616c7265616479206d696e74656400000000600082015250565b7f4552433732313a207472616e7366657220746f20746865207a65726f2061646460008201527f7265737300000000000000000000000000000000000000000000000000000000602082015250565b7f4552433732313a20617070726f766520746f2063616c6c657200000000000000600082015250565b7f4552433732313a206f70657261746f7220717565727920666f72206e6f6e657860008201527f697374656e7420746f6b656e0000000000000000000000000000000000000000602082015250565b7f4552433732313a20617070726f76652063616c6c6572206973206e6f74206f7760008201527f6e6572206e6f7220617070726f76656420666f7220616c6c0000000000000000602082015250565b7f4552433732313a2062616c616e636520717565727920666f7220746865207a6560008201527f726f206164647265737300000000000000000000000000000000000000000000602082015250565b7f4552433732313a206f776e657220717565727920666f72206e6f6e657869737460008201527f656e7420746f6b656e0000000000000000000000000000000000000000000000602082015250565b7f45524337323155524953746f726167653a2055524920736574206f66206e6f6e60008201527f6578697374656e7420746f6b656e000000000000000000000000000000000000602082015250565b7f4552433732313a206d696e7420746f20746865207a65726f2061646472657373600082015250565b7f45524337323155524953746f726167653a2055524920717565727920666f722060008201527f6e6f6e6578697374656e7420746f6b656e000000000000000000000000000000602082015250565b7f4552433732313a20617070726f76656420717565727920666f72206e6f6e657860008201527f697374656e7420746f6b656e0000000000000000000000000000000000000000602082015250565b7f4552433732313a207472616e73666572206f6620746f6b656e2074686174206960008201527f73206e6f74206f776e0000000000000000000000000000000000000000000000602082015250565b7f4552433732314d657461646174613a2055524920717565727920666f72206e6f60008201527f6e6578697374656e7420746f6b656e0000000000000000000000000000000000602082015250565b7f4552433732313a20617070726f76616c20746f2063757272656e74206f776e6560008201527f7200000000000000000000000000000000000000000000000000000000000000602082015250565b7f4552433732313a207472616e736665722063616c6c6572206973206e6f74206f60008201527f776e6572206e6f7220617070726f766564000000000000000000000000000000602082015250565b612c4681612529565b8114612c5157600080fd5b50565b612c5d8161253b565b8114612c6857600080fd5b50565b612c7481612547565b8114612c7f57600080fd5b50565b612c8b81612593565b8114612c9657600080fd5b5056fea26469706673582212201f12c3052f787d4b56497bc7ef1851fb5c0a63b7bfe5ac30c5f1faabb481af2a64736f6c63430008020033",
  "immutableReferences": {},
  "source": "// contracts/GameItem.sol\r\n// SPDX-License-Identifier: MIT\r\npragma solidity >=0.8.0 <0.9.0;\r\n\r\nimport \"@openzeppelin/contracts/token/ERC721/extensions/ERC721URIStorage.sol\";\r\n\r\nimport \"./Asset.sol\";\r\n\r\ncontract Composer is ERC721URIStorage {\r\n    uint256 public value;\r\n    Asset[] public assets;\r\n\r\n    event TokenEmitted(string indexed symbol, address _sender, uint256 _id);\r\n\r\n    constructor(Asset[] memory assetAddresses) ERC721(\"NextFrame\", \"NXF\") {\r\n        assets = assetAddresses;\r\n        value = 0;\r\n    }\r\n\r\n    function mintAsset(string memory _tokenURI) public returns (uint256) {\r\n        _mint(msg.sender, 1);\r\n        _setTokenURI(1, _tokenURI);\r\n\r\n        emit TokenEmitted(symbol(), msg.sender, 1);\r\n\r\n        return 1;\r\n    }\r\n\r\n    // function _beforeTokenTransfer(\r\n    //     address, /*from*/\r\n    //     address to,\r\n    //     uint256 /*tokenId*/\r\n    // ) internal override {\r\n    //     _changeReceiver(to);\r\n    // }\r\n}\r\n",
  "sourcePath": "C:\\Code\\next-frame-dapp\\contracts\\Composer.sol",
  "compiler": {
    "name": "solc",
    "version": "0.8.2+commit.661d1103.Emscripten.clang"
  },
  "schemaVersion": "3.4.4",
  "updatedAt": "2022-02-06T18:27:50.525Z",
  "devdoc": {
    "kind": "dev",
    "methods": {
      "approve(address,uint256)": {
        "details": "See {IERC721-approve}."
      },
      "balanceOf(address)": {
        "details": "See {IERC721-balanceOf}."
      },
      "getApproved(uint256)": {
        "details": "See {IERC721-getApproved}."
      },
      "isApprovedForAll(address,address)": {
        "details": "See {IERC721-isApprovedForAll}."
      },
      "name()": {
        "details": "See {IERC721Metadata-name}."
      },
      "ownerOf(uint256)": {
        "details": "See {IERC721-ownerOf}."
      },
      "safeTransferFrom(address,address,uint256)": {
        "details": "See {IERC721-safeTransferFrom}."
      },
      "safeTransferFrom(address,address,uint256,bytes)": {
        "details": "See {IERC721-safeTransferFrom}."
      },
      "setApprovalForAll(address,bool)": {
        "details": "See {IERC721-setApprovalForAll}."
      },
      "supportsInterface(bytes4)": {
        "details": "See {IERC165-supportsInterface}."
      },
      "symbol()": {
        "details": "See {IERC721Metadata-symbol}."
      },
      "tokenURI(uint256)": {
        "details": "See {IERC721Metadata-tokenURI}."
      },
      "transferFrom(address,address,uint256)": {
        "details": "See {IERC721-transferFrom}."
      }
    },
    "version": 1
  },
  "userdoc": {
    "kind": "user",
    "methods": {},
    "version": 1
  }
}