{
  "contractName": "RedirectAll",
  "abi": [
    {
      "anonymous": false,
      "inputs": [
        {
          "indexed": false,
          "internalType": "address",
          "name": "receiver",
          "type": "address"
        }
      ],
      "name": "ReceiverChanged",
      "type": "event"
    },
    {
      "inputs": [
        {
          "internalType": "contract ISuperToken",
          "name": "",
          "type": "address"
        },
        {
          "internalType": "address",
          "name": "",
          "type": "address"
        },
        {
          "internalType": "bytes32",
          "name": "",
          "type": "bytes32"
        },
        {
          "internalType": "bytes",
          "name": "",
          "type": "bytes"
        },
        {
          "internalType": "bytes",
          "name": "",
          "type": "bytes"
        }
      ],
      "name": "beforeAgreementCreated",
      "outputs": [
        {
          "internalType": "bytes",
          "name": "",
          "type": "bytes"
        }
      ],
      "stateMutability": "view",
      "type": "function"
    },
    {
      "inputs": [
        {
          "internalType": "contract ISuperToken",
          "name": "",
          "type": "address"
        },
        {
          "internalType": "address",
          "name": "",
          "type": "address"
        },
        {
          "internalType": "bytes32",
          "name": "",
          "type": "bytes32"
        },
        {
          "internalType": "bytes",
          "name": "",
          "type": "bytes"
        },
        {
          "internalType": "bytes",
          "name": "",
          "type": "bytes"
        }
      ],
      "name": "beforeAgreementTerminated",
      "outputs": [
        {
          "internalType": "bytes",
          "name": "",
          "type": "bytes"
        }
      ],
      "stateMutability": "view",
      "type": "function"
    },
    {
      "inputs": [
        {
          "internalType": "contract ISuperToken",
          "name": "",
          "type": "address"
        },
        {
          "internalType": "address",
          "name": "",
          "type": "address"
        },
        {
          "internalType": "bytes32",
          "name": "",
          "type": "bytes32"
        },
        {
          "internalType": "bytes",
          "name": "",
          "type": "bytes"
        },
        {
          "internalType": "bytes",
          "name": "",
          "type": "bytes"
        }
      ],
      "name": "beforeAgreementUpdated",
      "outputs": [
        {
          "internalType": "bytes",
          "name": "",
          "type": "bytes"
        }
      ],
      "stateMutability": "view",
      "type": "function"
    },
    {
      "inputs": [],
      "name": "currentReceiver",
      "outputs": [
        {
          "internalType": "uint256",
          "name": "startTime",
          "type": "uint256"
        },
        {
          "internalType": "address",
          "name": "receiver",
          "type": "address"
        },
        {
          "internalType": "int96",
          "name": "flowRate",
          "type": "int96"
        }
      ],
      "stateMutability": "view",
      "type": "function"
    },
    {
      "inputs": [
        {
          "internalType": "contract ISuperToken",
          "name": "_superToken",
          "type": "address"
        },
        {
          "internalType": "address",
          "name": "_agreementClass",
          "type": "address"
        },
        {
          "internalType": "bytes32",
          "name": "",
          "type": "bytes32"
        },
        {
          "internalType": "bytes",
          "name": "",
          "type": "bytes"
        },
        {
          "internalType": "bytes",
          "name": "",
          "type": "bytes"
        },
        {
          "internalType": "bytes",
          "name": "_ctx",
          "type": "bytes"
        }
      ],
      "name": "afterAgreementCreated",
      "outputs": [
        {
          "internalType": "bytes",
          "name": "newCtx",
          "type": "bytes"
        }
      ],
      "stateMutability": "nonpayable",
      "type": "function"
    },
    {
      "inputs": [
        {
          "internalType": "contract ISuperToken",
          "name": "_superToken",
          "type": "address"
        },
        {
          "internalType": "address",
          "name": "_agreementClass",
          "type": "address"
        },
        {
          "internalType": "bytes32",
          "name": "",
          "type": "bytes32"
        },
        {
          "internalType": "bytes",
          "name": "",
          "type": "bytes"
        },
        {
          "internalType": "bytes",
          "name": "",
          "type": "bytes"
        },
        {
          "internalType": "bytes",
          "name": "_ctx",
          "type": "bytes"
        }
      ],
      "name": "afterAgreementUpdated",
      "outputs": [
        {
          "internalType": "bytes",
          "name": "newCtx",
          "type": "bytes"
        }
      ],
      "stateMutability": "nonpayable",
      "type": "function"
    },
    {
      "inputs": [
        {
          "internalType": "contract ISuperToken",
          "name": "_superToken",
          "type": "address"
        },
        {
          "internalType": "address",
          "name": "_agreementClass",
          "type": "address"
        },
        {
          "internalType": "bytes32",
          "name": "",
          "type": "bytes32"
        },
        {
          "internalType": "bytes",
          "name": "",
          "type": "bytes"
        },
        {
          "internalType": "bytes",
          "name": "",
          "type": "bytes"
        },
        {
          "internalType": "bytes",
          "name": "_ctx",
          "type": "bytes"
        }
      ],
      "name": "afterAgreementTerminated",
      "outputs": [
        {
          "internalType": "bytes",
          "name": "newCtx",
          "type": "bytes"
        }
      ],
      "stateMutability": "nonpayable",
      "type": "function"
    }
  ],
  "bytecode": "0x608060405234801561001057600080fd5b50611de5806100206000396000f3fe608060405234801561001057600080fd5b506004361061007d5760003560e01c806353c11f991161005b57806353c11f99146101025780635f9e7d7714610132578063884d1f4014610162578063d86ed3e5146101925761007d565b8063230dbd291461008257806328d2bf94146100b257806330d9c915146100d2575b600080fd5b61009c6004803603810190610097919061138f565b6101c2565b6040516100a99190611673565b60405180910390f35b6100ba610301565b6040516100c9939291906118a5565b60405180910390f35b6100ec60048036038101906100e791906112df565b610484565b6040516100f99190611673565b60405180910390f35b61011c6004803603810190610117919061138f565b6104c1565b6040516101299190611673565b60405180910390f35b61014c600480360381019061014791906112df565b6105d9565b6040516101599190611673565b60405180910390f35b61017c600480360381019061017791906112df565b610616565b6040516101899190611673565b60405180910390f35b6101ac60048036038101906101a7919061138f565b610653565b6040516101b99190611673565b60405180910390f35b606089896101cf82610792565b61020e576040517f08c379a000000000000000000000000000000000000000000000000000000000815260040161020590611805565b60405180910390fd5b610217816107ec565b610256576040517f08c379a000000000000000000000000000000000000000000000000000000000815260040161024d906117e5565b60405180910390fd5b600060029054906101000a900473ffffffffffffffffffffffffffffffffffffffff1673ffffffffffffffffffffffffffffffffffffffff163373ffffffffffffffffffffffffffffffffffffffff16146102e6576040517f08c379a00000000000000000000000000000000000000000000000000000000081526004016102dd90611845565b60405180910390fd5b6102f08585610895565b925050509998505050505050505050565b60008060008073ffffffffffffffffffffffffffffffffffffffff16600360009054906101000a900473ffffffffffffffffffffffffffffffffffffffff1673ffffffffffffffffffffffffffffffffffffffff161461047f57600160009054906101000a900473ffffffffffffffffffffffffffffffffffffffff1673ffffffffffffffffffffffffffffffffffffffff1663e6a1e888600260009054906101000a900473ffffffffffffffffffffffffffffffffffffffff1630600360009054906101000a900473ffffffffffffffffffffffffffffffffffffffff166040518463ffffffff1660e01b81526004016103fe93929190611716565b60806040518083038186803b15801561041657600080fd5b505afa15801561042a573d6000803e3d6000fd5b505050506040513d601f19601f8201168201806040525081019061044e9190611497565b9050508092508194505050600360009054906101000a900473ffffffffffffffffffffffffffffffffffffffff1691505b909192565b60606040517f08c379a00000000000000000000000000000000000000000000000000000000081526004016104b890611885565b60405180910390fd5b6060600060029054906101000a900473ffffffffffffffffffffffffffffffffffffffff1673ffffffffffffffffffffffffffffffffffffffff163373ffffffffffffffffffffffffffffffffffffffff1614610553576040517f08c379a000000000000000000000000000000000000000000000000000000000815260040161054a90611845565b60405180910390fd5b61055c8a610792565b158061056e575061056c896107ec565b155b156105bf5782828080601f016020809104026020016040519081016040528093929190818152602001838380828437600081840152601f19601f8201169050808301925050505050505090506105cc565b6105c98383610895565b90505b9998505050505050505050565b60606040517f08c379a000000000000000000000000000000000000000000000000000000000815260040161060d90611825565b60405180910390fd5b60606040517f08c379a000000000000000000000000000000000000000000000000000000000815260040161064a90611865565b60405180910390fd5b6060898961066082610792565b61069f576040517f08c379a000000000000000000000000000000000000000000000000000000000815260040161069690611805565b60405180910390fd5b6106a8816107ec565b6106e7576040517f08c379a00000000000000000000000000000000000000000000000000000000081526004016106de906117e5565b60405180910390fd5b600060029054906101000a900473ffffffffffffffffffffffffffffffffffffffff1673ffffffffffffffffffffffffffffffffffffffff163373ffffffffffffffffffffffffffffffffffffffff1614610777576040517f08c379a000000000000000000000000000000000000000000000000000000000815260040161076e90611845565b60405180910390fd5b6107818585610895565b925050509998505050505050505050565b6000600260009054906101000a900473ffffffffffffffffffffffffffffffffffffffff1673ffffffffffffffffffffffffffffffffffffffff168273ffffffffffffffffffffffffffffffffffffffff16149050919050565b60007fa9214cc96615e0085d3bb077758db69497dc2dce3b2b1e97bc93c3d18d83efd38273ffffffffffffffffffffffffffffffffffffffff16637730599e6040518163ffffffff1660e01b815260040160206040518083038186803b15801561085557600080fd5b505afa158015610869573d6000803e3d6000fd5b505050506040513d601f19601f8201168201806040525081019061088d919061124a565b149050919050565b606082828080601f016020809104026020016040519081016040528093929190818152602001838380828437600081840152601f19601f8201169050808301925050505050505090506000600160009054906101000a900473ffffffffffffffffffffffffffffffffffffffff1673ffffffffffffffffffffffffffffffffffffffff1663e8e7e2d1600260009054906101000a900473ffffffffffffffffffffffffffffffffffffffff16306040518363ffffffff1660e01b815260040161095f9291906116ed565b60206040518083038186803b15801561097757600080fd5b505afa15801561098b573d6000803e3d6000fd5b505050506040513d601f19601f820116820180604052508101906109af919061146e565b90506000600160009054906101000a900473ffffffffffffffffffffffffffffffffffffffff1673ffffffffffffffffffffffffffffffffffffffff1663e6a1e888600260009054906101000a900473ffffffffffffffffffffffffffffffffffffffff1630600360009054906101000a900473ffffffffffffffffffffffffffffffffffffffff166040518463ffffffff1660e01b8152600401610a5693929190611716565b60806040518083038186803b158015610a6e57600080fd5b505afa158015610a82573d6000803e3d6000fd5b505050506040513d601f19601f82011682018060405250810190610aa69190611497565b505091505060008183610ab9919061195f565b90506000600b0b81600b0b1415610cde57600060029054906101000a900473ffffffffffffffffffffffffffffffffffffffff1673ffffffffffffffffffffffffffffffffffffffff16634329d293600160009054906101000a900473ffffffffffffffffffffffffffffffffffffffff1663b4b333c660e01b600260009054906101000a900473ffffffffffffffffffffffffffffffffffffffff1630600360009054906101000a900473ffffffffffffffffffffffffffffffffffffffff16600067ffffffffffffffff811115610bbb577f4e487b7100000000000000000000000000000000000000000000000000000000600052604160045260246000fd5b6040519080825280601f01601f191660200182016040528015610bed5781602001600182028036833780820191505090505b50604051602401610c01949392919061174d565b604051602081830303815290604052907bffffffffffffffffffffffffffffffffffffffffffffffffffffffff19166020820180517bffffffffffffffffffffffffffffffffffffffffffffffffffffffff8381831617835250505050876040518463ffffffff1660e01b8152600401610c7d93929190611695565b600060405180830381600087803b158015610c9757600080fd5b505af1158015610cab573d6000803e3d6000fd5b505050506040513d6000823e3d601f19601f82011682018060405250810190610cd49190611273565b5080945050611111565b6000600b0b82600b0b14610f0057600060029054906101000a900473ffffffffffffffffffffffffffffffffffffffff1673ffffffffffffffffffffffffffffffffffffffff16634329d293600160009054906101000a900473ffffffffffffffffffffffffffffffffffffffff166350209a6260e01b600260009054906101000a900473ffffffffffffffffffffffffffffffffffffffff16600360009054906101000a900473ffffffffffffffffffffffffffffffffffffffff1686600067ffffffffffffffff811115610ddd577f4e487b7100000000000000000000000000000000000000000000000000000000600052604160045260246000fd5b6040519080825280601f01601f191660200182016040528015610e0f5781602001600182028036833780820191505090505b50604051602401610e239493929190611799565b604051602081830303815290604052907bffffffffffffffffffffffffffffffffffffffffffffffffffffffff19166020820180517bffffffffffffffffffffffffffffffffffffffffffffffffffffffff8381831617835250505050876040518463ffffffff1660e01b8152600401610e9f93929190611695565b600060405180830381600087803b158015610eb957600080fd5b505af1158015610ecd573d6000803e3d6000fd5b505050506040513d6000823e3d601f19601f82011682018060405250810190610ef69190611273565b5080945050611110565b600060029054906101000a900473ffffffffffffffffffffffffffffffffffffffff1673ffffffffffffffffffffffffffffffffffffffff16634329d293600160009054906101000a900473ffffffffffffffffffffffffffffffffffffffff166362fc305e60e01b600260009054906101000a900473ffffffffffffffffffffffffffffffffffffffff16600360009054906101000a900473ffffffffffffffffffffffffffffffffffffffff1686600067ffffffffffffffff811115610ff1577f4e487b7100000000000000000000000000000000000000000000000000000000600052604160045260246000fd5b6040519080825280601f01601f1916602001820160405280156110235781602001600182028036833780820191505090505b506040516024016110379493929190611799565b604051602081830303815290604052907bffffffffffffffffffffffffffffffffffffffffffffffffffffffff19166020820180517bffffffffffffffffffffffffffffffffffffffffffffffffffffffff8381831617835250505050876040518463ffffffff1660e01b81526004016110b393929190611695565b600060405180830381600087803b1580156110cd57600080fd5b505af11580156110e1573d6000803e3d6000fd5b505050506040513d6000823e3d601f19601f8201168201806040525081019061110a9190611273565b50809450505b5b50505092915050565b600061112d61112884611901565b6118dc565b90508281526020810184848401111561114557600080fd5b611150848285611a8c565b509392505050565b60008135905061116781611d3c565b92915050565b60008135905061117c81611d53565b92915050565b60008151905061119181611d53565b92915050565b60008083601f8401126111a957600080fd5b8235905067ffffffffffffffff8111156111c257600080fd5b6020830191508360018202830111156111da57600080fd5b9250929050565b600082601f8301126111f257600080fd5b815161120284826020860161111a565b91505092915050565b60008135905061121a81611d6a565b92915050565b60008151905061122f81611d81565b92915050565b60008151905061124481611d98565b92915050565b60006020828403121561125c57600080fd5b600061126a84828501611182565b91505092915050565b6000806040838503121561128657600080fd5b600083015167ffffffffffffffff8111156112a057600080fd5b6112ac858286016111e1565b925050602083015167ffffffffffffffff8111156112c957600080fd5b6112d5858286016111e1565b9150509250929050565b600080600080600080600060a0888a0312156112fa57600080fd5b60006113088a828b0161120b565b97505060206113198a828b01611158565b965050604061132a8a828b0161116d565b955050606088013567ffffffffffffffff81111561134757600080fd5b6113538a828b01611197565b9450945050608088013567ffffffffffffffff81111561137257600080fd5b61137e8a828b01611197565b925092505092959891949750929550565b600080600080600080600080600060c08a8c0312156113ad57600080fd5b60006113bb8c828d0161120b565b99505060206113cc8c828d01611158565b98505060406113dd8c828d0161116d565b97505060608a013567ffffffffffffffff8111156113fa57600080fd5b6114068c828d01611197565b965096505060808a013567ffffffffffffffff81111561142557600080fd5b6114318c828d01611197565b945094505060a08a013567ffffffffffffffff81111561145057600080fd5b61145c8c828d01611197565b92509250509295985092959850929598565b60006020828403121561148057600080fd5b600061148e84828501611220565b91505092915050565b600080600080608085870312156114ad57600080fd5b60006114bb87828801611235565b94505060206114cc87828801611220565b93505060406114dd87828801611235565b92505060606114ee87828801611235565b91505092959194509250565b611503816119df565b82525050565b600061151482611932565b61151e818561193d565b935061152e818560208601611a8c565b61153781611b4e565b840191505092915050565b61154b81611a44565b82525050565b61155a81611a68565b82525050565b61156981611a0d565b82525050565b600061157c60218361194e565b915061158782611b5f565b604082019050919050565b600061159f601f8361194e565b91506115aa82611bae565b602082019050919050565b60006115c260338361194e565b91506115cd82611bd7565b604082019050919050565b60006115e560228361194e565b91506115f082611c26565b604082019050919050565b600061160860028361193d565b915061161382611c75565b602082019050919050565b600061162b602f8361194e565b915061163682611c9e565b604082019050919050565b600061164e602f8361194e565b915061165982611ced565b604082019050919050565b61166d81611a3a565b82525050565b6000602082019050818103600083015261168d8184611509565b905092915050565b60006080820190506116aa6000830186611542565b81810360208301526116bc8185611509565b905081810360408301526116cf816115fb565b905081810360608301526116e38184611509565b9050949350505050565b60006040820190506117026000830185611551565b61170f60208301846114fa565b9392505050565b600060608201905061172b6000830186611551565b61173860208301856114fa565b61174560408301846114fa565b949350505050565b60006080820190506117626000830187611551565b61176f60208301866114fa565b61177c60408301856114fa565b818103606083015261178e8184611509565b905095945050505050565b60006080820190506117ae6000830187611551565b6117bb60208301866114fa565b6117c86040830185611560565b81810360608301526117da8184611509565b905095945050505050565b600060208201905081810360008301526117fe8161156f565b9050919050565b6000602082019050818103600083015261181e81611592565b9050919050565b6000602082019050818103600083015261183e816115b5565b9050919050565b6000602082019050818103600083015261185e816115d8565b9050919050565b6000602082019050818103600083015261187e8161161e565b9050919050565b6000602082019050818103600083015261189e81611641565b9050919050565b60006060820190506118ba6000830186611664565b6118c760208301856114fa565b6118d46040830184611560565b949350505050565b60006118e66118f7565b90506118f28282611abf565b919050565b6000604051905090565b600067ffffffffffffffff82111561191c5761191b611b1f565b5b61192582611b4e565b9050602081019050919050565b600081519050919050565b600082825260208201905092915050565b600082825260208201905092915050565b600061196a82611a0d565b915061197583611a0d565b9250816b7fffffffffffffffffffffff0383136000831215161561199c5761199b611af0565b5b817fffffffffffffffffffffffffffffffffffffffff8000000000000000000000000383126000831216156119d4576119d3611af0565b5b828201905092915050565b60006119ea82611a1a565b9050919050565b6000819050919050565b6000611a06826119df565b9050919050565b600081600b0b9050919050565b600073ffffffffffffffffffffffffffffffffffffffff82169050919050565b6000819050919050565b6000611a4f82611a56565b9050919050565b6000611a6182611a1a565b9050919050565b6000611a7382611a7a565b9050919050565b6000611a8582611a1a565b9050919050565b60005b83811015611aaa578082015181840152602081019050611a8f565b83811115611ab9576000848401525b50505050565b611ac882611b4e565b810181811067ffffffffffffffff82111715611ae757611ae6611b1f565b5b80604052505050565b7f4e487b7100000000000000000000000000000000000000000000000000000000600052601160045260246000fd5b7f4e487b7100000000000000000000000000000000000000000000000000000000600052604160045260246000fd5b6000601f19601f8301169050919050565b7f5265646972656374416c6c3a206f6e6c7920434641763120737570706f72746560008201527f6400000000000000000000000000000000000000000000000000000000000000602082015250565b7f5265646972656374416c6c3a206e6f7420616363657074656420746f6b656e00600082015250565b7f556e737570706f727465642063616c6c6261636b202d20204265666f7265204160008201527f677265656d656e74205465726d696e6174656400000000000000000000000000602082015250565b7f5265646972656374416c6c3a20737570706f7274206f6e6c79206f6e6520686f60008201527f7374000000000000000000000000000000000000000000000000000000000000602082015250565b7f3078000000000000000000000000000000000000000000000000000000000000600082015250565b7f556e737570706f727465642063616c6c6261636b202d204265666f726520416760008201527f7265656d656e7420757064617465640000000000000000000000000000000000602082015250565b7f556e737570706f727465642063616c6c6261636b202d204265666f726520416760008201527f7265656d656e7420437265617465640000000000000000000000000000000000602082015250565b611d45816119df565b8114611d5057600080fd5b50565b611d5c816119f1565b8114611d6757600080fd5b50565b611d73816119fb565b8114611d7e57600080fd5b50565b611d8a81611a0d565b8114611d9557600080fd5b50565b611da181611a3a565b8114611dac57600080fd5b5056fea264697066735822122022f3adb9ece7ffebe0e81bf387b3248966eb328401eaa83597c939b910c38c4164736f6c63430008020033",
  "immutableReferences": {},
  "source": "// SPDX-License-Identifier: MIT\r\npragma solidity ^0.8.2;\r\npragma experimental ABIEncoderV2;\r\n\r\nimport {ISuperfluid, ISuperToken, ISuperApp, ISuperAgreement, ContextDefinitions, SuperAppDefinitions} from \"@superfluid-finance/ethereum-contracts/contracts/interfaces/superfluid/ISuperfluid.sol\";\r\n\r\nimport \"@openzeppelin/contracts-upgradeable/proxy/utils/Initializable.sol\";\r\n\r\n// When ready to move to leave Remix, change imports to follow this pattern:\r\n// \"@superfluid-finance/ethereum-contracts/contracts/interfaces/superfluid/ISuperfluid.sol\";\r\n\r\nimport {IConstantFlowAgreementV1} from \"@superfluid-finance/ethereum-contracts/contracts/interfaces/agreements/IConstantFlowAgreementV1.sol\";\r\n\r\nimport {SuperAppBase} from \"@superfluid-finance/ethereum-contracts/contracts/apps/SuperAppBase.sol\";\r\n\r\ncontract RedirectAll is SuperAppBase, Initializable {\r\n    ISuperfluid private _host; // host\r\n    IConstantFlowAgreementV1 private _cfa; // the stored constant flow agreement class address\r\n    ISuperToken private _acceptedToken; // accepted token\r\n    address private _receiver;\r\n\r\n    function __superRedirect_init(\r\n        ISuperfluid host,\r\n        IConstantFlowAgreementV1 cfa,\r\n        ISuperToken acceptedToken,\r\n        address receiver\r\n    ) internal onlyInitializing {\r\n        require(address(host) != address(0), \"host is zero address\");\r\n        require(address(cfa) != address(0), \"cfa is zero address\");\r\n        require(\r\n            address(acceptedToken) != address(0),\r\n            \"acceptedToken is zero address\"\r\n        );\r\n        require(address(receiver) != address(0), \"receiver is zero address\");\r\n        require(!host.isApp(ISuperApp(receiver)), \"receiver is an app\");\r\n\r\n        _host = host;\r\n        _cfa = cfa;\r\n        _acceptedToken = acceptedToken;\r\n        _receiver = receiver;\r\n\r\n        uint256 configWord = SuperAppDefinitions.APP_LEVEL_FINAL |\r\n            SuperAppDefinitions.BEFORE_AGREEMENT_CREATED_NOOP |\r\n            SuperAppDefinitions.BEFORE_AGREEMENT_UPDATED_NOOP |\r\n            SuperAppDefinitions.BEFORE_AGREEMENT_TERMINATED_NOOP;\r\n\r\n        _host.registerApp(configWord);\r\n    }\r\n\r\n    /**************************************************************************\r\n     * Redirect Logic\r\n     *************************************************************************/\r\n\r\n    function currentReceiver()\r\n        external\r\n        view\r\n        returns (\r\n            uint256 startTime,\r\n            address receiver,\r\n            int96 flowRate\r\n        )\r\n    {\r\n        if (_receiver != address(0)) {\r\n            (startTime, flowRate, , ) = _cfa.getFlow(\r\n                _acceptedToken,\r\n                address(this),\r\n                _receiver\r\n            );\r\n            receiver = _receiver;\r\n        }\r\n    }\r\n\r\n    event ReceiverChanged(address receiver); //what is this?\r\n\r\n    /// @dev If a new stream is opened, or an existing one is opened\r\n    function _updateOutflow(bytes calldata ctx)\r\n        private\r\n        returns (bytes memory newCtx)\r\n    {\r\n        newCtx = ctx;\r\n        // @dev This will give me the new flowRate, as it is called in after callbacks\r\n        int96 netFlowRate = _cfa.getNetFlow(_acceptedToken, address(this));\r\n        (, int96 outFlowRate, , ) = _cfa.getFlow(\r\n            _acceptedToken,\r\n            address(this),\r\n            _receiver\r\n        ); // CHECK: unclear what happens if flow doesn't exist.\r\n        int96 inFlowRate = netFlowRate + outFlowRate;\r\n\r\n        // @dev If inFlowRate === 0, then delete existing flow.\r\n        if (inFlowRate == int96(0)) {\r\n            // @dev if inFlowRate is zero, delete outflow.\r\n            (newCtx, ) = _host.callAgreementWithContext(\r\n                _cfa,\r\n                abi.encodeWithSelector(\r\n                    _cfa.deleteFlow.selector,\r\n                    _acceptedToken,\r\n                    address(this),\r\n                    _receiver,\r\n                    new bytes(0) // placeholder\r\n                ),\r\n                \"0x\",\r\n                newCtx\r\n            );\r\n        } else if (outFlowRate != int96(0)) {\r\n            (newCtx, ) = _host.callAgreementWithContext(\r\n                _cfa,\r\n                abi.encodeWithSelector(\r\n                    _cfa.updateFlow.selector,\r\n                    _acceptedToken,\r\n                    _receiver,\r\n                    inFlowRate,\r\n                    new bytes(0) // placeholder\r\n                ),\r\n                \"0x\",\r\n                newCtx\r\n            );\r\n        } else {\r\n            // @dev If there is no existing outflow, then create new flow to equal inflow\r\n            (newCtx, ) = _host.callAgreementWithContext(\r\n                _cfa,\r\n                abi.encodeWithSelector(\r\n                    _cfa.createFlow.selector,\r\n                    _acceptedToken,\r\n                    _receiver,\r\n                    inFlowRate,\r\n                    new bytes(0) // placeholder\r\n                ),\r\n                \"0x\",\r\n                newCtx\r\n            );\r\n        }\r\n    }\r\n\r\n    // @dev Change the Receiver of the total flow\r\n    function _changeReceiver(address newReceiver) internal {\r\n        require(newReceiver != address(0), \"New receiver is zero address\");\r\n        // @dev because our app is registered as final, we can't take downstream apps\r\n        require(\r\n            !_host.isApp(ISuperApp(newReceiver)),\r\n            \"New receiver can not be a superApp\"\r\n        );\r\n        if (newReceiver == _receiver) return;\r\n        // @dev delete flow to old receiver\r\n        (, int96 outFlowRate, , ) = _cfa.getFlow(\r\n            _acceptedToken,\r\n            address(this),\r\n            _receiver\r\n        ); //CHECK: unclear what happens if flow doesn't exist.\r\n        if (outFlowRate > 0) {\r\n            _host.callAgreement(\r\n                _cfa,\r\n                abi.encodeWithSelector(\r\n                    _cfa.deleteFlow.selector,\r\n                    _acceptedToken,\r\n                    address(this),\r\n                    _receiver,\r\n                    new bytes(0)\r\n                ),\r\n                \"0x\"\r\n            );\r\n            // @dev create flow to new receiver\r\n            _host.callAgreement(\r\n                _cfa,\r\n                abi.encodeWithSelector(\r\n                    _cfa.createFlow.selector,\r\n                    _acceptedToken,\r\n                    newReceiver,\r\n                    _cfa.getNetFlow(_acceptedToken, address(this)),\r\n                    new bytes(0)\r\n                ),\r\n                \"0x\"\r\n            );\r\n        }\r\n        // @dev set global receiver to new receiver\r\n        _receiver = newReceiver;\r\n\r\n        emit ReceiverChanged(_receiver);\r\n    }\r\n\r\n    /**************************************************************************\r\n     * SuperApp callbacks\r\n     *************************************************************************/\r\n\r\n    function afterAgreementCreated(\r\n        ISuperToken _superToken,\r\n        address _agreementClass,\r\n        bytes32, // _agreementId,\r\n        bytes calldata, /*_agreementData*/\r\n        bytes calldata, // _cbdata,\r\n        bytes calldata _ctx\r\n    )\r\n        external\r\n        override\r\n        onlyExpected(_superToken, _agreementClass)\r\n        onlyHost\r\n        returns (bytes memory newCtx)\r\n    {\r\n        return _updateOutflow(_ctx);\r\n    }\r\n\r\n    function afterAgreementUpdated(\r\n        ISuperToken _superToken,\r\n        address _agreementClass,\r\n        bytes32, //_agreementId,\r\n        bytes calldata, //agreementData,\r\n        bytes calldata, //_cbdata,\r\n        bytes calldata _ctx\r\n    )\r\n        external\r\n        override\r\n        onlyExpected(_superToken, _agreementClass)\r\n        onlyHost\r\n        returns (bytes memory newCtx)\r\n    {\r\n        return _updateOutflow(_ctx);\r\n    }\r\n\r\n    function afterAgreementTerminated(\r\n        ISuperToken _superToken,\r\n        address _agreementClass,\r\n        bytes32, //_agreementId,\r\n        bytes calldata, /*_agreementData*/\r\n        bytes calldata, //_cbdata,\r\n        bytes calldata _ctx\r\n    ) external override onlyHost returns (bytes memory newCtx) {\r\n        // According to the app basic law, we should never revert in a termination callback\r\n        if (!_isSameToken(_superToken) || !_isCFAv1(_agreementClass))\r\n            return _ctx;\r\n        return _updateOutflow(_ctx);\r\n    }\r\n\r\n    function _isSameToken(ISuperToken superToken) private view returns (bool) {\r\n        return address(superToken) == address(_acceptedToken);\r\n    }\r\n\r\n    function _isCFAv1(address agreementClass) private view returns (bool) {\r\n        return\r\n            ISuperAgreement(agreementClass).agreementType() ==\r\n            keccak256(\r\n                \"org.superfluid-finance.agreements.ConstantFlowAgreement.v1\"\r\n            );\r\n    }\r\n\r\n    modifier onlyHost() {\r\n        require(\r\n            msg.sender == address(_host),\r\n            \"RedirectAll: support only one host\"\r\n        );\r\n        _;\r\n    }\r\n\r\n    modifier onlyExpected(ISuperToken superToken, address agreementClass) {\r\n        require(_isSameToken(superToken), \"RedirectAll: not accepted token\");\r\n        require(_isCFAv1(agreementClass), \"RedirectAll: only CFAv1 supported\");\r\n        _;\r\n    }\r\n}\r\n",
  "sourcePath": "C:\\Code\\next-frame-dapp\\contracts\\SuperRedirect.sol",
  "compiler": {
    "name": "solc",
    "version": "0.8.2+commit.661d1103.Emscripten.clang"
  },
  "schemaVersion": "3.4.4",
  "updatedAt": "2022-02-06T18:27:50.626Z",
  "devdoc": {
    "kind": "dev",
    "methods": {},
    "version": 1
  },
  "userdoc": {
    "kind": "user",
    "methods": {},
    "version": 1
  }
}